:020000040800F2
:1000000000800020214600085D1300085F130008EF
:100010006113000863130008651300080000000066
:10002000000000000000000000000000671300084E
:1000300069130008000000006B1300086D1300082E
:1000400071460008714600087146000871460008B4
:1000500071460008714600087146000871460008A4
:1000600071460008714600087146000875130008C3
:100070008513000895130008A513000871460008B1
:100080007146000800000000714600087146000833
:100090007146000871460008714600087146000864
:1000A0007146000871460008714600087146000854
:1000B0007146000871460008714600087146000844
:1000C0007146000871460008714600087146000834
:1000D0007146000871460008714600087146000824
:1000E0007146000871460008714600087146000814
:1000F000B5130008714600087146000800000000B2
:100100000000000071460008000000007146000871
:1001100071460008000000007146000871460008A2
:1001200071460008714600087146000871460008D3
:100130007146000800000000000000007146000841
:100140007146000871460008000000000000000031
:10015000000000000000000000000000000000009F
:1001600000000000000000000000000071460008D0
:1001700071460008000000000000000000000000C0
:1001800000000000714600080000000000000000B0
:10019000000000000000000000000000000000005F
:1001A000000000000000000071460008C9130008AC
:1001B0007146000871460008714600080000000002
:1001C0000000000071460008000000000000000070
:0801D0007146000871460008A9
:100200000348044B834202D0034B03B118477047A5
:10021000A0010020A00100200000000005480649C0
:10022000091A891001EBD171491002D0034B03B1B7
:1002300018477047A0010020A00100200000000026
:1002400010B5064C237843B9FFF7DAFF044B13B11E
:100250000448AFF300800123237010BDA0010020EB
:10026000000000007446000808B5044B1BB10449A7
:100270000448AFF30080BDE80840CFE7000000006D
:10028000A40100207446000870B50D4E0D4D761B7C
:10029000B61006D00024013455F8043B9847A64216
:1002A000F9D1094E094D761B04F0E4F9B61006D0D9
:1002B0000024013455F8043B9847A642F9D170BD9B
:1002C0007051000870510008745100087051000806
:1002D000F0B4860746D0541E002A3CD0CAB203466A
:1002E00002E014F1FF3436D303F8012B9D07F8D157
:1002F000032C29D9CDB245EA05250F2C45EA054541
:1003000033D9A4F11006360903F1200707EB0617CD
:1003100003F1100242E9045542E902551032BA4293
:10032000F8D1721C14F00C0F03EB021204F00F064C
:1003300013D0331F23F003030433134442F8045B48
:100340009342FBD106F003042CB1C9B21C4403F85C
:10035000011B9C42FBD1F0BC704734461346002C75
:10036000F3D1F8E714460346C2E71A462646E0E70B
:100370002DE9F04F0124254688461646AE462A460A
:10038000ADF21C4D07461C4600214FF0FF355318B7
:100390009C4206EB05000ED9805C16F803C084452C
:1003A00080F0CC8019460122A3EB050E53189C4225
:1003B00006EB0500F0D8CDF80CE04FF0010E7246C8
:1003C00000214FF0FF3053189C4206EB000C0FD970
:1003D0001CF802C016F80390E14540F2B6801946B9
:1003E0000122A3EB000E53189C4206EB000CEFD841
:1003F0006B1C01309842029328BFCDE9020E05AB79
:100400000DF2144243F8044F9342FBD1631E009354
:10041000002C00F01681009B06AD721E9819019504
:1004200012F8011FD34323443344824245F821305C
:10043000F6D1DDE902233046F11800F0C5F90028B5
:1004400040F09680029B013B0593F318824681465B
:10045000049307EB090E009B019A1EF8033052F833
:100460002330EBB1BAF1000F03D0039A934238BFA7
:10047000A31A99444FF0000AA8EB04034B45E8D2B5
:1004800007EB080044F4006100F0A8FA8044A8EBF0
:1004900004034B45DDD200200DF21C4DBDE8F08F6A
:1004A000029B534538BF53461D46009B9D4218D2C0
:1004B00005EB0902715DB85C88423A4406EB05031E
:1004C00034D1A4F1020CB444C6F1010B05E013F8D9
:1004D000010F12F8011F884228D19C450BEB030540
:1004E000F5D1029B9A4580F0A980059B049A4B4464
:1004F0001178FA5C91423B4440F0A0800AEB090578
:100500003D44049A05E012F8010D13F8011D8842DC
:1005100003D1AB42A3EB0E0CF5D10AF1010AE2457F
:100520007DD8039B9944A4EB030AA5E7029BC3F182
:1005300001039944A9444FF0000A9DE70CD04FF005
:10054000010E0D467246714421E70BD04FF0010EAB
:1005500008467246714436E7724512BF01321946A9
:10056000012214E7724512BF0132194601222AE71F
:10057000029AA31A934238BF1346511E01330593C2
:10058000731804910393002506EB020B07EB050E8D
:10059000009A01991EF8023051F8233083B11D44AE
:1005A000A8EB04039D42F1D907EB080044F4006175
:1005B00000F014FA8044A8EB04039D42E6D96AE7F0
:1005C000029B934217D2EA189BF80030B95C99421B
:1005D0003A4429D1A4F1020CB4445B46C6F10109A6
:1005E00005E013F8010F12F8011F88421ED1634580
:1005F00009EB030AF5D1049B5A1C10D0EA18039B9F
:10060000B95C1B7899423A4416D1039B05E013F874
:10061000010D12F8011D88420ED1B342F7D1704688
:100620000DF21C4DBDE8F08FDDF808A0029BC3F170
:1006300001031D445544B3E7059BB0E7DDF808C04E
:100640006BE706AB0193F4E62DE9F0410E4609781D
:1006500090B00446002958D07278002A00F08D80AE
:10066000B078002855D0F378002B00F08D803379D6
:10067000002B5FD0304600F043F9804640F4007113
:10068000204600F0ABF9804572D8B8F1FE0F00F2B9
:100690009280A0EB0807402208F101016846274438
:1006A000FFF716FEB8F1000F10D0731E03EB08051C
:1006B0005FFA88F013F8012F10A902F03F020A44F4
:1006C000F11A0144AB4202F8401CF3D1013C10AADC
:1006D00014F8083003F03F03134413F8403C1C4463
:1006E000A74203D238E02C44A74235D314F808506F
:1006F00010AB05F03F051D4442463146204615F833
:10070000405C00F061F80028EDD1204610B0BDE853
:10071000F081237842EA014253B3601C617800E023
:10072000204641EA0343441C11B39A424178F7D171
:10073000441EEAE72278DAB1306800BA02E0834268
:1007400008D00C4642EA03236278611C002AF6D1E5
:1007500083420DD1033CD8E717F8083007EB0800B7
:1007600033B14FF4006100F039F90744A742ADD22C
:100770000024204610B0BDE8F08100F055F8044692
:10078000204610B0BDE8F0811204237842EA0162ED
:1007900042EA0022002BEBD01B02601C617800E0D3
:1007A00020460B431B02441C0029E1D09A424178A9
:1007B000F6D1841EA9E70146434620463246FFF79C
:1007C000D7FD0446A1E700BF032A70B412D940EA5E
:1007D0000105AD0704460B4620D11946204653F8C3
:1007E000045B54F8046BAE4218D1043A032A204645
:1007F0001946F2D8541E72B103780A789A4208BF9B
:10080000241806D00CE010F8013F11F8012F934294
:1008100006D1A042F7D1002070BC7047541EEBE710
:10082000981A70BC704700BFC9B200F003030029DA
:1008300035D07BB10378002B57D0994252D0431C5E
:1008400005E013F8012B002A4DD08A424AD09A07BE
:100850001846F6D170B441EA0126046846EA064615
:1008600001E050F8044F86EA0405A5F10132A4F135
:10087000013322EA050223EA0403134313F0803F05
:10088000EFD0037843B1994202D106E08B4204D005
:1008900010F8013F002BF9D1184670BC70474BB1DE
:1008A0000378FBB1431C02E002780133D2B199070F
:1008B0001846F9D10268A2F1013323EA020313F0CA
:1008C000803F08D150F8042FA2F1013323EA02033C
:1008D00013F0803FF6D0037823B110F8013F002BCE
:1008E000FBD170477047104670471846704700BFED
:1008F00000000000000000000000000000000000F8
:1009000090F800F06DE9024520F007016FF0000C4F
:1009100010F0070491F820F040F049804FF00004F7
:100920006FF00700D1E9002391F840F000F10800D2
:1009300082FA4CF2A4FA8CF283FA4CF3A2FA8CF30A
:100940004BBBD1E9022382FA4CF200F10800A4FA71
:100950008CF283FA4CF3A2FA8CF3E3B9D1E90423C5
:1009600082FA4CF200F10800A4FA8CF283FA4CF3FC
:10097000A2FA8CF37BB9D1E9062301F1200182FAB6
:100980004CF200F10800A4FA8CF283FA4CF3A2FABC
:100990008CF3002BC6D0002A04BF04301A4612BACA
:1009A000B2FA82F2FDE8024500EBD2007047D1E9CD
:1009B000002304F00305C4F100004FEAC50514F05C
:1009C000040F91F840F00CFA05F562EA05021CBF2D
:1009D00063EA050362464FF00004A9E7C9B1027853
:1009E000CAB1431C014499421A4616D010B4147877
:1009F000013334B199421A4607D014780133002CE0
:100A0000F8D1101A5DF8044B7047081A5DF8044BD2
:100A100070470846704710467047081A704700BF75
:100A200053B94AB9002908BF00281CBF4FF0FF3155
:100A30004FF0FF3000F074B9ADF1080C6DE904CE51
:100A400000F006F8DDF804E0DDE9022304B07047A9
:100A50002DE9F047089E04468846002B40F085802B
:100A60008A42154648D9B2FA82F24AB1C2F1200749
:100A700001FA02F320FA07F7954047EA0308944089
:100A80004FEA154E230CB8FBFEF71FFA85FC0EFB50
:100A9000178843EA084307FB0CF1994209D9EB1880
:100AA00007F1FF3080F0E380994240F2E080023F9E
:100AB0002B445B1AA4B2B3FBFEF00EFB103344EAE6
:100AC000034400FB0CFCA44509D92C1900F1FF33A9
:100AD00080F0CB80A44540F2C88002382C4440EA24
:100AE0000740A4EB0C0400271EB1D4400023C6E944
:100AF00000433946BDE8F087002A53D0B2FA82F2AB
:100B0000002A40F0B680491B4FEA154E1FFA85F8BF
:100B10000127B1FBFEFC230C0EFB1C1143EA014331
:100B200008FB0CF1994207D9EB180CF1FF3002D207
:100B3000994200F2EC808446591AA3B2B1FBFEF050
:100B40000EFB101443EA044408FB00F8A04507D943
:100B50002C1900F1FF3302D2A04500F2DC801846C8
:100B6000A4EB080440EA0C40BEE78B4208D9002EF3
:100B700078D00027C6E9000138463946BDE8F0873D
:100B8000B3FA83F77FB98B4202D3824200F2BD8071
:100B9000841A61EB030301209846002EA9D0C6E910
:100BA0000048A6E7FFDEC7F12005BB4022FA05FC9E
:100BB0004CEA030C01FA07F420FA05F821FA05F3D0
:100BC0004FEA1C4E48EA0404B3FBFEF9210C0EFB6D
:100BD00019331FFA8CF841EA034309FB08FA9A45D6
:100BE00002FA07F200FA07F10BD91CEB030309F133
:100BF000FF3080F088809A4540F28580A9F1020993
:100C00006344A3EB0A03A4B2B3FBFEF00EFB103364
:100C100044EA034400FB08F8A04508D91CEB04048F
:100C200000F1FF336BD2A04569D90238644440EA31
:100C30000940A4EB0804A0FB02894C45C6464B467C
:100C400054D351D0002E69D0B1EB0E0264EB0304F3
:100C500004FA05F522FA07F3FC401D43C6E90054E7
:100C6000002746E73746304643E7184637E707464A
:100C70001FE7C2F1200320FA03F7954001FA02F0C2
:100C800021FA03F34FEA154E3843010CB3FBFEF78C
:100C90001FFA85F80EFB173341EA034107FB08F3FF
:100CA0008B4204FA02F407D9691807F1FF3C28D2F5
:100CB0008B4226D9023F2944CB1A81B2B3FBFEF006
:100CC0000EFB103341EA034100FB08F38B4207D9C6
:100CD000691800F1FF3C10D28B420ED9023829442A
:100CE000C91A40EA074714E74145ABD2B8EB020EF8
:100CF00069EB0C0201381346A4E76046F0E718469A
:100D000095E76746D8E781467BE7384645E7ACF18B
:100D1000020C2B4410E702382C4421E73746E8E662
:100D2000704700BF72B6FEE700B595B038220021CB
:100D300006A8FFF7CDFA00200190029003900490DE
:100D4000059001F007FE022306934FF4807209928A
:100D500040220A920D930E9304220F925522109274
:100D600011931293139306A800F0DAFD80B90F23B4
:100D70000193032302930023039304930593042117
:100D80000DEB010001F084F820B915B05DF804FB0B
:100D9000FFF7C8FFFFF7C6FF08B500F05FFDFFF7DC
:100DA000C3FF00F017F800F02BF900F079F800F01D
:100DB00061F900F079FA00F091F903F099FB044829
:100DC00002F04CFE03F0AAFB03F014FCFAE700BFAC
:100DD0009405002070B58AB0002405940694079409
:100DE000089409942B4BDA6C42F00402DA64DA6C52
:100DF00002F004020192019ADA6C42F02002DA64F5
:100E0000DA6C02F020020292029ADA6C42F00102DD
:100E1000DA64DA6C02F001020392039ADA6C42F0AF
:100E20000202DA64DB6C03F002030493049B1A4DA4
:100E300022463821284601F0A0FB01224FF4007120
:100E4000284601F09AFB42F20303059306940794A7
:100E500005A9124801F0B4FA0126059606940794F4
:100E600005A9284601F0ACFA3823059306960794A5
:100E7000089405A9284601F0A3FA4FF400730593DE
:100E800006960796089405A9284601F099FA0AB033
:100E900070BD00BF00100240000400480008004878
:100EA00000B58DB0302200216846FFF711FA1648D0
:100EB000164B036000F0ACFAE0B902230093002265
:100EC0008DF804208DF805200292062303930492E6
:100ED000059201230693079269460B4800F07AFBBE
:100EE00058B910226946084800F074FB40B90DB0AB
:100EF0005DF804FBFFF716FFDFE7FFF713FFF0E7EE
:100F0000FFF710FFF3E700BF400300200008005088
:100F100010B588B0002303930493059306930793B9
:100F20000268324B9A4201D008B010BD044603F16A
:100F3000704303F50233DA6C42F48032DA64DA6C1F
:100F400002F480320192019ADA6C42F00102DA6412
:100F5000DB6C03F001030293029B30230393032312
:100F6000049303A94FF0904001F02AFA2048214B46
:100F7000036006234360102383600023C360802343
:100F800003614FF4007343614FF4006383612023D6
:100F9000C3614FF48053036201F04CFBF8B9144B6A
:100FA000A3609C621448154B036007234360102321
:100FB00083600023C360802303614FF400734361A7
:100FC0004FF4006383612023C3614FF480530362B5
:100FD00001F030FB30B9084BE3609C62A4E7FFF7F7
:100FE000A1FEDCE7FFF79EFEF5E700BF000800501A
:100FF0005403002030000240E00200204400024080
:1010000000B583B01A4B9A6C42F004029A649A6C51
:1010100002F004020092009A9A6C42F001029A6473
:101020009B6C03F001030193019B002211460B20EE
:1010300001F030FD0B2001F061FD002211460C2073
:1010400001F028FD0C2001F059FD002211460D2071
:1010500001F020FD0D2001F051FD002211460E206F
:1010600001F018FD0E2001F049FD03B05DF804FB0E
:101070000010024008B51748174B03604FF4E133E6
:10108000436000238360C36003610C22426183617B
:1010900003624362836202F05FFB70B900210D4876
:1010A00002F030FC60B900210A4802F050FC50B94F
:1010B000084802F008FC48B908BDFFF733FEEDE729
:1010C000FFF730FEEFE7FFF72DFEF1E7FFF72AFE0F
:1010D000F2E700BFB40300200080004008B51748C5
:1010E000174B03604FF4E133436000238360C36018
:1010F00003610C2242618361C361036243628362C4
:1011000002F02AFB70B900210C4802F0FBFB60B929
:1011100000210A4802F01BFC50B9084802F0D3FB3A
:1011200048B908BDFFF7FEFDEDE7FFF7FBFDEFE770
:10113000FFF7F8FDF1E7FFF7F5FDF2E744040020C3
:101140000038014030B59BB004460021159116913E
:10115000179118911991442204A8FFF7B9F8236850
:10116000494A934204D0494A934263D01BB030BDF0
:101170002023049304A800F0B1FF002851D1444B70
:10118000DA6D42F00102DA65DA6D02F001020092D6
:10119000009ADA6C42F00102DA64DB6C03F00103BE
:1011A0000193019B0C23159302221692002517959B
:1011B0001895199315A94FF0904001F001F93548A1
:1011C000354B0360222343608560C5608023036143
:1011D000456185612023C361056201F02BFA18BBCC
:1011E0002C4BE3679C622D482D4B03602323436007
:1011F000102383600023C360802202614361836106
:10120000C361036201F016FA88B9244BA3679C629C
:10121000002201215B2001F03DFC5B2001F06EFC0F
:10122000A4E7FFF77FFDAAE7FFF77CFDD8E7FFF70C
:1012300079FDEAE70123049304A800F04FFF00BB07
:10124000134B1A6E42F480421A661A6E02F4804200
:101250000292029ADA6C42F00402DA64DB6C03F068
:1012600004030393039B3023159302231693002357
:10127000179318930723199315A90A4801F0A0F8AA
:1012800074E7FFF74FFDDBE70080004000380140C6
:10129000001002403405002008000240D404002061
:1012A0001C0002400008004800B589B000230493E8
:1012B0000593069307930193029303931548164AE7
:1012C0000260A922426083603122C26003614361EF
:1012D000836102F08FFDA0B94FF48053049304A9F9
:1012E0000C4802F0C3FD78B9202301930023029338
:1012F000039301A9074802F04DFE40B909B05DF81B
:1013000004FBFFF70FFDE7E7FFF70CFDECE7FFF746
:1013100009FDF3E7940500200034014002680E4BFC
:101320009A4200D0704700B583B003F55C431A6E53
:1013300042F400521A661B6E03F400530193019BA2
:10134000002211462C2001F0A5FB2C2001F0D6FB39
:1013500003B05DF804FB00BF00340140FEE7FEE788
:10136000FEE7FEE7FEE770477047704708B500F0FC
:1013700085FA08BD08B5024801F087FA08BD00BF2C
:101380003405002008B5024801F07FFA08BD00BF0F
:10139000D404002008B5024801F077FA08BD00BF68
:1013A0005403002008B5024801F06FFA08BD00BFE1
:1013B000E002002008B502F0CFFE024802F0AEFBCA
:1013C00008BD00BF9405002008B5024801F02AFDC1
:1013D00008BD00BFB403002000B583B00B4B1A6EEC
:1013E00042F001021A661A6E02F001020092009A9F
:1013F0009A6D42F080529A659B6D03F08053019381
:10140000019B01F02DFB03B05DF804FB00100240CE
:1014100070B110B50446037933B102232371002063
:1014200020610123237110BD4371FFF771FDF4E7C3
:1014300001207047F8B5069C4579012D72D0012531
:10144000457102250571002936D18568364EEE6258
:101450008568364E2E638568354E6E63066835683E
:1014600045F480553560042C20D0082C21D0D4B10F
:101470000C4615460F46064600293BD101680A680E
:1014800042F400520A6022462946806801F03EF983
:10149000044600237371002C38D0336943F00403F1
:1014A00033612046F8BD04680834E2E704680C3470
:1014B000DFE704681034DCE7C5681E4EEE62C568DD
:1014C0001D4E2E63C5681D4E6E630668356845F077
:1014D00080553560042C07D0082C08D00CB10024AE
:1014E000C7E704681434C4E704681834C1E7046823
:1014F0001C34BEE701680A6842F000520A602246C6
:101500002946C06801F002F90446C2E73268136850
:1015100007F01001012000FA01F11943116000F0F9
:10152000BFF9BEE70224BCE79D150008AF1500080F
:10153000BB150008D7170008E9170008F5170008C1
:1015400038B504460D460068026801F010034FF4F8
:101550008051994022EA0102026021680A68012054
:1015600000FA03F322EA03030B6000F099F95DB976
:10157000A06801F015F92268136823F40053136082
:1015800001232371002038BDE06801F009F92268C9
:10159000136823F000531360F2E7704710B5846AB4
:1015A0002046FFF7FAFF0123237110BD704708B5ED
:1015B000806AFFF7FBFF08BD704710B5846A236996
:1015C00043F0040323612046FFF7F6FF0123237154
:1015D00010BD00004379012B00F0F5802DE9F041AA
:1015E00015460E46044601234371022303718B689E
:1015F000042B17D0F369012B5FD02368DF6B05F054
:1016000010050723AB4027EA0307B369012B61D01C
:10161000022B00F0BE807369002B40F0BD804FF0BC
:10162000010859E000F036F907467DB123685B6B8D
:10163000002B3BDA00F02EF9C01B0128F6D92369F4
:1016400043F00803236103202071A0E023685B6B53
:1016500013F4004F0BD000F01DF9C01B0128F5D981
:10166000236943F008032361032020718FE00120E8
:1016700000F016F92368726A1A642068826C05F01B
:10168000100140F2FF338B4022EA0302B36A8B4021
:101690001A4382642068C36CFF228A4023EA020353
:1016A000F26A02FA01F10B43C364A3E7012000F0E0
:1016B000F7F82368726A5A64DFE721688A6B05F0DD
:1016C00010001F23834022EA0302336A834013433E
:1016D0008B6392E74FF00008B3687269134343EAE3
:1016E00008034FF48072AA4027EA02073279012AE0
:1016F00055D04FF0000848EA03034FF40072AA40A7
:1017000027EA02077279012A4CD04FF0000848EA14
:10171000030827F440473368022B46D01F4308FADA
:1017200005F848EA07072368DF6321680B684FF470
:101730008042AA4023EA02030B6021680B6840F64E
:10174000FE72AA4023EA0202F368AB4013430B6027
:1017500021680B68C022AA4023EA02030B60F268EA
:10176000C2F3830332699208120202F470621A43D0
:101770002068036E40F60F71A94023EA010302FAC4
:1017800005F51D4305660123237100206071BDE846
:10179000F0814FF001089FE74FF000089CE74FF4FD
:1017A0008078A8E74FF40078B1E700F06DFC074BB4
:1017B000984202D947F40047B1E7054B9842AED9A9
:1017C00047F48047ABE70220704700BF00688909F3
:1017D00000B4C404704710B5846A2046FFF7FAFFCE
:1017E0000123237110BD704708B5806AFFF7FBFF26
:1017F00008BD704710B5846A236943F00403236170
:101800002046FFF7F6FF0123237110BD104B1B6824
:101810000BB90120704710B504464FF47A70B0FB45
:10182000F3F30C4A1068B0FBF3F001F075F968B9F6
:101830000F2C01D901200AE0002221464FF0FF3091
:1018400001F028F9044B1C60002000E0012010BDCD
:1018500000000020080000200400002010B5032034
:1018600001F006F90020FFF7D1FF10B10124204656
:1018700010BD0446FFF7B0FDF9E70000034A136806
:10188000034909680B441360704700BFE00500205E
:1018900000000020014B1868704700BFE0050020E1
:1018A00038B50446FFF7F6FF0546B4F1FF3F02D016
:1018B000044B1B681C44FFF7EDFF401BA042FAD30A
:1018C00038BD00BF00000020124AD36803F00303B4
:1018D000D068C0F303100130032B11D00E4BB3FBC3
:1018E000F0F30C4AD068C0F3062000FB03F0094B6C
:1018F000DB68C3F3416301335B00B0FBF3F0704777
:10190000064BB3FBF0F3D068C0F3062000FB03F0F6
:10191000EDE700BF001002400024F40000366E0125
:10192000002800F0548270B582B00446036813F0BA
:10193000010F37D0B44A936803F00C03D26802F069
:1019400003020C2B23D0082B23D06368B3F5803F10
:101950004ED0B3F5A02F51D0AB4B1A6822F4803291
:101960001A601A6822F480221A606368002B52D031
:10197000FFF790FF0546A44B1B6813F4003F11D1FD
:10198000FFF788FF401B6428F5D9032028E2032ACB
:10199000D9D19D4B1B6813F4003F03D06368002B23
:1019A00000F01782236813F0020F5DD0964A936807
:1019B00003F00C03D26802F003020C2B3AD0042B84
:1019C0003AD0E368002B75D08F4A136843F48073D4
:1019D0001360FFF75FFF05468B4B1B6813F4806FA6
:1019E0005FD1FFF757FF401B0228F5D90320F7E12D
:1019F000854A136843F480331360B6E703F18043EC
:101A0000A3F53C331A6842F480221A601A6842F443
:101A100080321A60A9E7FFF73DFF05467A4B1B6845
:101A200013F4003FBED0FFF735FF401B6428F5D903
:101A30000320D5E1022AC2D1734B1B6813F4806FD7
:101A400003D0E368002B00F0C6816F4A536823F08F
:101A5000FE43216943EA016353606C4B1868FFF74A
:101A6000D5FE002840F0B981236813F0080F4CD050
:101A700063699BB3644AD2F8943043F00103C2F81F
:101A80009430FFF707FF05465F4BD3F8943013F00F
:101A9000020F3AD1FFF7FEFE401B0228F4D90320C3
:101AA0009EE1594A536823F0FE43216943EA0163EA
:101AB0005360D9E7544A136823F480731360FFF727
:101AC000E9FE0546504B1B6813F4806FCCD0FFF73E
:101AD000E1FE401B0228F5D9032081E14A4AD2F8F1
:101AE000943023F00103C2F89430FFF7D3FE05468B
:101AF000454BD3F8943013F0020F06D0FFF7CAFE1F
:101B0000401B0228F4D903206AE1236813F0040F74
:101B100000F081803C4B9B6D13F0805F36D13A4BD7
:101B20009A6D42F080529A659B6D03F08053019349
:101B3000019B0125364B1B6813F4807F28D0A368D6
:101B4000012B39D0052B3FD02F4BD3F8902022F01A
:101B50000102C3F89020D3F8902022F00402C3F8C9
:101B60009020A368002B3DD0FFF794FE0646264B3D
:101B7000D3F8903013F0020F4CD1FFF78BFE801B8F
:101B800041F288339842F2D9032029E10025D1E7B8
:101B90001F4A136843F480731360FFF77BFE064609
:101BA0001B4B1B6813F4807FC9D1FFF773FE801BAA
:101BB0000228F5D9032013E1134AD2F8903043F0FC
:101BC0000103C2F89030CCE70F4BD3F8902042F0DD
:101BD0000402C3F89020D3F8902042F00102C3F829
:101BE0009020BEE7FFF756FE0646074BD3F890302D
:101BF00013F0020F0ED0FFF74DFE801B41F2883329
:101C00009842F2D90320EBE00010024004000020CB
:101C100000700040E5B9236813F0200F35D0A369A8
:101C2000E3B1774AD2F8983043F00103C2F8983014
:101C3000FFF730FE0546724BD3F8983013F0020FD1
:101C400023D1FFF727FE401B0228F4D90320C7E069
:101C50006B4A936D23F080539365DCE7684AD2F8B2
:101C6000983023F00103C2F89830FFF713FE0546C1
:101C7000634BD3F8983013F0020F06D0FFF70AFE3B
:101C8000401B0228F4D90320AAE0E369002B00F0EE
:101C9000A6805B4A926802F00C020C2A69D0022BE3
:101CA0001DD0574B1A6822F080721A60DA6822F051
:101CB0000302DA60DA6822F0887222F48032DA6095
:101CC000FFF7E8FD04464E4B1B6813F0007F4ED033
:101CD000FFF7E0FD001B0228F5D9032080E0484A09
:101CE000136823F080731360FFF7D4FD0546444B5F
:101CF0001B6813F0007F06D0FFF7CCFD401B0228C5
:101D0000F5D903206CE03E4AD3683E491940236A66
:101D1000606A013843EA0013A06A43EA0023206B9B
:101D20004008013843EA4053606B4008013843EAF9
:101D30004063E06A43EAC0630B43D360136843F037
:101D400080731360D36843F08073D360FFF7A2FD04
:101D500004462B4B1B6813F0007F06D1FFF79AFD5A
:101D6000001B0228F5D903203AE0002038E00020CB
:101D700036E0012B36D0224BDB6803F00301226AE8
:101D8000914231D103F0F002616A0139B2EB011FD7
:101D90002CD103F4FE42A16AB2EB012F28D103F04B
:101DA0007842E16AB2EBC16F24D103F4C001226B27
:101DB0005208013AB1EB425F1ED103F0C063626B7F
:101DC0005208013AB3EB426F18D1002008E001201D
:101DD0007047012004E0012002E0012000E0002023
:101DE00002B070BD0120FBE70120F9E70120F7E711
:101DF0000120F5E70120F3E70120F1E70120EFE7FB
:101E0000001002400C809F011E4B9B6803F00C03E6
:101E1000042B32D01B4B9B6803F00C03082B2ED0F5
:101E2000184B9B6803F00C030C2B01D0002070476B
:101E3000144AD36803F00303D068C0F303100130E1
:101E4000032B11D0104BB3FBF0F30E4AD068C0F354
:101E5000062000FB03F00B4BDB68C3F34163013347
:101E60005B00B0FBF3F07047084BB3FBF0F3D068B6
:101E7000C0F3062000FB03F0EDE70348704703487A
:101E8000704700BF001002400024F40000366E01CD
:101E9000002800F0E680F8B50446754B1B6803F097
:101EA0000F038B420BD2724A136823F00F030B43CC
:101EB0001360136803F00F038B4240F0D4800D468B
:101EC000266816F001065FD06368032B2FD0022B23
:101ED0004DD0684B1B6813F4806F00F0C680FFF78D
:101EE00093FF654B98424DD9624A936823F0F00303
:101EF00043F08003936080265E4A936823F00303D7
:101F000061680B439360FFF7C5FC0746594B9B681C
:101F100003F00C036268B3EB820F35D0FFF7BAFC15
:101F2000C01B41F288339842F0D9032078E0514B2E
:101F30001B6813F0007F01D1012071E0FFF7C4FCA2
:101F40004D4B98421AD94B4B9B6813F0F00F05D0BC
:101F5000266816F00206CFD0A3688BB9454A93686D
:101F600023F0F00343F0800393608026C4E7414BE5
:101F70001B6813F4003FB2D1012051E00026BBE7FB
:101F80000026B9E70026B7E7236813F0020F48D010
:101F900013F0040F04D0374A936843F4E06393606E
:101FA000236813F0080F06D0324A936823F47C5359
:101FB00043F4E06393602F4A936823F0F003A16831
:101FC0000B4393602A4B1B6803F00F03AB4230D8DE
:101FD000236813F0040F06D0264A936823F4E063C5
:101FE000E1680B439360236813F0080F07D0214A80
:101FF000936823F46053216943EAC1039360FFF7B8
:1020000003FF1C4B9B68C3F303131C4AD35C03F010
:102010001F03D8401A4B18601A4B1868FFF7F6FBDD
:10202000F8BD802ECED1134A936823F0F00393605D
:10203000C8E70F4A136823F00F032B431360FFF721
:1020400029FC06460A4B1B6803F00F03AB42BFD0C6
:10205000FFF720FC801B41F288339842F2D903201D
:10206000DEE7012070470120DAE70120D8E700BF52
:10207000002002400010024000B4C404BC46000826
:102080000800002004000020014B1868704700BFC2
:102090000800002008B5FFF7F7FF054B9B68C3F366
:1020A0000223044AD35C03F01F03D84008BD00BFDD
:1020B00000100240CC46000808B5FFF7E5FF054BCD
:1020C0009B68C3F3C223044AD35C03F01F03D840C8
:1020D00008BD00BF00100240CC460008F0B583B038
:1020E0000446036813F4002F69D0B34B9B6D13F0C3
:1020F000805F1ED1B04B9A6D42F080529A659B6D05
:1021000003F080530193019B0126AC4A136843F40A
:1021100080731360FFF7BEFB0546A84B1B6813F4E2
:10212000807F08D1FFF7B6FB401B0228F5D90325B5
:1021300002E00026E9E7002545BB9F4BD3F890302D
:1021400013F4407315D0226C9A4212D09A4AD2F8F6
:10215000903023F44073D2F8901041F48031C2F8EB
:102160009010D2F8901021F48031C2F89010C2F88B
:10217000903013F0010F10D145B98F4AD2F890304A
:1021800023F44073216C0B43C2F89030C6B18A4AE5
:10219000936D23F08053936512E0FFF77BFB0746B6
:1021A000854BD3F8903013F0020FE5D1FFF772FBA7
:1021B000C01B41F288339842F2D90325DCE70025A1
:1021C000236813F0010F08D07B4AD2F8883023F03F
:1021D000030361680B43C2F88830236813F0020FD1
:1021E00008D0754AD2F8883023F00C03A1680B435D
:1021F000C2F88830236813F0040F08D06E4AD2F872
:10220000883023F03003E1680B43C2F8883023683C
:1022100013F0080F08D0684AD2F8883023F0C003C2
:1022200021690B43C2F88830236813F0200F08D0CF
:10223000614AD2F8883023F4406361690B43C2F8E5
:102240008830236813F0400F08D05B4AD2F88830FA
:1022500023F44053A1690B43C2F88830236813F07C
:10226000800F08D0544AD2F8883023F44043E16903
:102270000B43C2F88830236813F4807F08D04E4A9D
:10228000D2F8883023F44033216A0B43C2F88830F7
:10229000236813F4007F08D0474AD2F8883023F42B
:1022A0004023616A0B43C2F88830236813F4806FBF
:1022B0000CD0414AD2F8883023F44013A16A0B4372
:1022C000C2F88830A36AB3F5801F57D0236813F48F
:1022D000006F0CD0384AD2F8883023F44003E16A0A
:1022E0000B43C2F88830E36AB3F5800F4BD0236804
:1022F00013F4805F0CD0304AD2F8883023F040735A
:10230000216B0B43C2F88830236BB3F1807F3FD041
:10231000236813F4005F0CD0274AD2F8883023F0EA
:102320004063616B0B43C2F88830636BB3F1006F9D
:1023300033D0236813F4804F0CD01F4AD2F8883072
:1023400023F04063A16B0B43C2F88830A36BB3F159
:10235000006F27D0236813F4004F0CD0164AD2F830
:10236000883023F04053E16B0B43C2F88830E36BB5
:10237000B3F1805F1BD0284603B0F0BDD36843F4AF
:102380008013D360A2E7D36843F48013D360AEE731
:10239000D36843F48013D360BAE7D36843F480135F
:1023A000D360C6E7D36843F48013D360D2E7D36821
:1023B00043F48033D360DEE7001002400070004039
:1023C000F0B482B000235BE086685F000325BD4067
:1023D00026EA0506CD68BD4035438560466826EA95
:1023E00004064D68C5F300149C403443446055E036
:1023F000DD08083550F8257003F00704A6000F2407
:10240000B44027EA04070C69B4403C4340F8254037
:1024100058E0052400E00024B4403C4302354F4E10
:1024200046F825404E4CA568D44304EA05064F689B
:1024300017F4801F01D042EA0506494DAE60ED68F1
:1024400004EA05064F6817F4001F01D042EA0506AA
:10245000434DEE606D6804EA05064F6817F4003FCF
:1024600001D042EA05063E4D6E602D682C404E6854
:1024700016F4803F01D042EA0504394A1460013362
:102480000A6832FA03F465D001249C402240F6D059
:102490004D6805F00305013D012D95D94C6804F008
:1024A0000304032C09D0C5685E000324B44025EA68
:1024B00004058C68B4402C43C4604C6804F00304E9
:1024C000022C95D005685E000324B44025EA04057B
:1024D0004C6804F00304B4402C4304604C6814F4CA
:1024E000403FCCD01F4C256E45F001052566246E7B
:1024F00004F001040194019C9D08AE1C174C54F893
:10250000267003F00304A6000F24B44027EA040752
:10251000B0F1904F3FF47FAF134CA04212D004F5BE
:102520008064A04210D004F58064A0420ED004F56F
:102530008064A0420CD004F58064A0423FF469AFEF
:10254000062469E7012467E7022465E7032463E7BB
:10255000042461E702B0F0BC704700BF00000140F6
:1025600000040140001002400004004803691942C1
:1025700001D001207047002070470AB18161704787
:102580008162704770B4C46C056D6560446D14B1B0
:10259000846DC56D6560446C04F01F05066C0124F4
:1025A000AC407460046863608368102B05D00368D6
:1025B00099600368DA6070BC704703689A600368CA
:1025C000D960F8E703680C4A934213D80B49DBB291
:1025D000083B0B4AA2FB0323426C22F003020A448D
:1025E0008264084AC264C3F30413012202FA03F3AB
:1025F000036570470449EAE7070402400008024007
:10260000CDCCCCCC80080240200802400379074A98
:102610001A4492004265064A8265013B03F01F039B
:10262000012202FA03F3C365704700BF3F82001026
:102630004009024000285BD010B5044601682D4BCC
:1026400099423DD82C4B0B442C4AA2FB03231B0977
:102650009B0043642A4B0364022384F825300A68F4
:1026600022F4FF4222F07002A368E068034320696D
:10267000034360690343A0690343E0690343206A9D
:10268000034313430B602046FFF79CFFA368B3F599
:10269000804F20D0A36C22791A60E36C226D5A60BF
:1026A0006368013B032B19D900236365A365E365C8
:1026B0000020E063012384F8253084F8240010BD55
:1026C000104B0B440D4AA2FB03231B099B004364E0
:1026D0000D4B0364C0E700236360DBE72046FFF790
:1026E00095FF636D00221A60A36DE26D5A60DFE70B
:1026F0000120704707040240F8FFFDBFCDCCCCCCD1
:1027000000000240F8FBFDBF0004024038B590F81D
:102710002440012C42D0012480F8244090F8254028
:10272000E4B2012C04D0002380F82430022038BD0C
:102730000446022084F825000020E063256828680C
:1027400020F0010028602046FFF71CFF236BD3B167
:102750002268136843F00E031360A36C1A6812F426
:10276000803F03D01A6842F480721A60636D1BB117
:102770001A6842F480721A602268136843F00103F9
:1027800013600020D3E72268136823F0040313606A
:102790002268136843F00A031360DEE70220C6E7ED
:1027A000034690F82520D2B2022A09D00422C2633F
:1027B0000120012283F82520002283F8242070477D
:1027C00001680A6822F00E020A60816C0A6822F42D
:1027D00080720A6001680A6822F001020A60426C95
:1027E00002F01F01006C01228A404260DA6C196D10
:1027F00051605A6D42B1116821F4807111609A6D77
:10280000D96D51600020D4E70020D2E708B590F8D8
:102810002530DBB2022B09D00423C363012380F8E7
:102820002530002280F82420184608BD026813686D
:1028300023F00E0313600268136823F00103136092
:10284000826C136823F480731360436C03F01F02DF
:10285000016C012393404B60C36C026D5A60436D61
:1028600033B11A6822F480721A60836DC26D5A60A7
:10287000012380F82530002380F82430836B13B1C6
:1028800098470020D1E70020CFE738B5036C1968DE
:1028900004682568436C03F01F0304229A400A422F
:1028A00015D015F0040F12D0236813F0200F03D1B8
:1028B000236823F004032360436C03F01F02016CC0
:1028C000042393404B60036B03B1984738BD022249
:1028D0009A400A421CD015F0020F19D0236813F059
:1028E000200F06D1236823F00A032360012380F818
:1028F0002530436C03F01F02016C022393404B60B0
:10290000002380F82430C36A002BDFD09847DDE72E
:10291000082202FA03F30B42D8D015F0080FD5D0E5
:10292000236823F00E032360436C03F01F03016C44
:10293000012202FA03F34B60C26380F825200023D2
:1029400080F82430436B002BC0D09847BEE7C06BA3
:1029500070470000002836D13E4B1B6803F4C0636B
:10296000B3F5806F08D03B4AD2F8803023F48073EF
:10297000C2F8803000207047364AD2F8803023F405
:102980008073C2F88030136823F4C06343F400738B
:102990001360314B1A68322303FB02F32F4AA2FB68
:1029A00003239B0C013300E0013B2A4A526912F4D5
:1029B000806F01D0002BF7D1264B5B6913F4806F39
:1029C00044D100207047B0F5007F08D0214A136839
:1029D00023F4C06343F480631360002070471D4BF1
:1029E0001B6803F4C063B3F5806F08D0194AD2F8AE
:1029F000803043F48073C2F8803000207047154A5D
:102A0000D2F8803043F48073C2F88030136823F426
:102A1000C06343F4007313600F4B1A68322303FB47
:102A200002F30E4AA2FB03239B0C013300E0013B9F
:102A3000084A526912F4806F01D0002BF7D1054B80
:102A40005B6913F4806F03D1002070470320704747
:102A500003207047007000400800002083DE1B4305
:102A6000024A936843F480439360704700700040CB
:102A7000074AD36823F4E0631B041B0C000200F434
:102A8000E060184340F0BF6040F40030D060704711
:102A900000ED00E030B4174BDB68C3F30223C3F151
:102AA0000704042C28BF04241D1D062D01D9033B57
:102AB00000E000234FF0FF3505FA04F421EA040199
:102AC000994005FA03F322EA03031943002809DBBE
:102AD0000901C9B200F1604000F5614080F80013BF
:102AE00030BC704700F00F000901C9B2024B195405
:102AF000F6E700BF00ED00E014ED00E0002807DB82
:102B000000F01F02400901239340024A42F820309E
:102B1000704700BF00E100E00138B0F1807F0AD2C9
:102B2000064B5860064AF02182F823100020986076
:102B300007221A6070470120704700BF10E000E0D4
:102B400000ED00E0026852E8003F23F0C00342E8D5
:102B500000310029F6D1026802F1080353E8003F72
:102B600023F40003083242E800310029F3D1202386
:102B7000C0F884307047026852E8003F23F4907335
:102B800042E800310029F6D1026802F1080353E857
:102B9000003F23F0805323F00103083242E8003164
:102BA0000029F1D1C36E012B06D02023C0F8883054
:102BB0000023C36603677047026852E8003F23F0B2
:102BC000100342E800310029F6D1EEE710B5D0F845
:102BD0008440202C4AD100294AD0002A4AD090F8BB
:102BE0008030012B48D013460446012280F8802013
:102BF0000165A0F85430A0F856300022C0F88C20AF
:102C00002122C0F88420826FE2B11C49D162826F18
:102C10001B491163826F1B495163826F00219163CD
:102C200002682832016D806FFFF770FD50B11023EC
:102C3000C4F88C30002384F880302023C4F884301A
:102C4000012014E0236840221A62002384F88030B7
:102C5000226802F1080353E8003F43F08003083282
:102C600042E800310029F3D1002000E0022010BD2D
:102C70000120FCE70120FAE70220F8E73B2D0008DD
:102C8000A92D0008B92D000810B50446226852E8A5
:102C9000003F23F4907342E800310029F6D1226806
:102CA00002F1080353E8003F23F0805323F00103AF
:102CB000083242E800310029F1D1E36E012B28D01F
:102CC00023689B6813F0400F13D0226802F10803B9
:102CD00053E8003F23F04003083242E80031002966
:102CE000F3D1E36F2BB100229A63E06FFFF758FD39
:102CF000C8B90020A4F85E0023680F221A62226877
:102D0000936943F0080393612023C4F88830E06698
:102D100010BD226852E8003F23F0100342E8003162
:102D20000029F6D1CCE7E06FFFF711FE2028E0D1B3
:102D30001023C4F88C300320EAE708B5816A0368E1
:102D40001B6813F0200F18D10023A1F856300A6831
:102D500002F1080353E8003F23F08003083242E801
:102D600000300028F3D10A6852E8003F43F04003E6
:102D700042E800300028F6D108BD084601F0F0FB1B
:102D8000FAE708B5026852E8003F23F0400342E842
:102D900000310029F6D12023C0F884300023436796
:102DA00001F0DEFB08BD704708B5806AFFF7FBFF46
:102DB00008BD70477047704738B5846AD4F88420DE
:102DC000D4F8885023689B6813F0800F01D0212A23
:102DD00010D023689B6813F0400F01D0222D10D033
:102DE000D4F88C3043F01003C4F88C302046FFF741
:102DF000E2FF38BD0023A4F856302046FFF7A2FEBC
:102E0000E7E70023A4F85E302046FFF7B4FEE7E7CB
:102E100008B5806A0023A0F85E30A0F85630FFF7AE
:102E2000CAFF08BD70B504460168CB6908688D68A3
:102E300040F60F021A4008D113F0200F05D010F011
:102E4000200F34D115F0805F31D12AB1BC4A2A401D
:102E500033D1BC4E304230D1E26E012A00F0C38043
:102E600013F4801F03D015F4800F40F0538113F04A
:102E7000800F07D010F0800F40F0538115F4000F41
:102E800040F04F8113F0400F03D010F0400F40F09E
:102E90004F8113F4000F03D010F0804F40F04C81AD
:102EA00013F0807F02D00028C0F2508170BD236FE4
:102EB000002BFBD020469847F8E713F0010F09D00C
:102EC00010F4807F06D001260E62D4F88C103143B6
:102ED000C4F88C1013F0020F0BD015F0010F08D0BE
:102EE000216802260E62D4F88C1041F00401C4F867
:102EF0008C1013F0040F0BD015F0010F08D02168CF
:102F000004260E62D4F88C1041F00201C4F88C1033
:102F100013F0080F0BD010F0200F00D13AB1226847
:102F200008211162D4F88C200A43C4F88C2013F4D1
:102F3000006F0CD010F0806F09D022684FF4006150
:102F40001162D4F88C2042F02002C4F88C20D4F80E
:102F50008C20002AAAD013F0200F09D010F0200FE7
:102F600002D115F0805F03D0236F0BB12046984744
:102F7000D4F88C2023689B6813F0400F02D112F024
:102F8000280F29D02046FFF7F6FD23689B6813F031
:102F9000400F1DD0226802F1080353E8003F23F0E0
:102FA0004003083242E800310029F3D1E36F5BB1FE
:102FB000654A9A63E06FFFF729FC00283FF476AF7B
:102FC000E06F836B984771E72046FFF7F4FE6DE7EB
:102FD0002046FFF7F0FE69E72046FFF7ECFE0023EE
:102FE000C4F88C3062E713F0100F3FF439AF10F0E3
:102FF000100F3FF435AF10230B6223689B6813F06A
:10300000400F4ED0E26F13685B689BB2002B3FF419
:103010004DAFB4F85C1099427FF648AFA4F85E302B
:1030200013681B6813F0200F31D1226852E8003F6B
:1030300023F4807342E800310029F6D1226802F1BE
:10304000080353E8003F23F00103083242E800314F
:103050000029F3D1226802F1080353E8003F23F06E
:103060004003083242E800310029F3D12023C4F89C
:1030700088300023E366226852E8003F23F0100303
:1030800042E800310029F6D1E06FFFF789FBB4F880
:103090005C10B4F85E30C91A89B2204601F062FAB9
:1030A00004E7B4F85C10B4F85E30C91A89B2B4F819
:1030B0005E309BB2002B3FF4F9AE00293FF4F6AE30
:1030C000226852E8003F23F4907342E80030002861
:1030D000F6D1226802F1080353E8003F23F0805341
:1030E00023F00103083242E800300028F1D1202308
:1030F000C4F888300023E3662367226852E8003F63
:1031000023F0100342E800300028F6D1204601F0F9
:1031100029FACBE64FF480130B62204600F0D0FB77
:10312000C4E6636F002B3FF4C1AE20469847BDE66E
:103130002046FFF726FEB9E6204600F0C3FBB5E6C1
:103140000100001020010004112E0008204600F0AC
:10315000B8FBABE608B5806AC36E012B02D0FFF75F
:1031600029FE08BDB0F85C10490801F0FBF9F8E74A
:1031700008B5826A03681B6813F0200F29D1002369
:10318000A2F85E30116851E8003F23F4807341E8F3
:1031900000300028F6D1116801F1080353E8003F20
:1031A00023F00103083141E800300028F3D1116811
:1031B00001F1080353E8003F23F04003083141E8E0
:1031C00000300028F3D12023C2F88830D36E012BC1
:1031D00006D0D36E012B0DD01046FFF7EAFD08BDD7
:1031E000116851E8003F23F0100341E80030002847
:1031F000F6D1EEE7B2F85C10104601F0B3F9EEE755
:103200002DE9F84304460168836802691343426963
:103210001343C269134308689E4A024013430B607C
:103220002268536823F44053E1680B435360A1695B
:103230002268994B9A4201D0236A1943936823F07C
:103240006E4323F430630B4393602268D36A23F008
:103250000F03616A0B43D3622368904A934223D0E1
:103260008F4A934234D08F4A93424AD08E4A934237
:103270005DD0894A934270D0102287498B4200F07A
:103280009580E069B0F5004F00F0D580082A00F283
:103290005181DFE812F01601380114014F013B01A2
:1032A0004F014F014F013E0102F55842D2F88820EC
:1032B00002F00302032A09D8DFE802F002046806DC
:1032C0000122DAE70422D8E70822D6E71022D4E761
:1032D00002F5E632D2F8882002F00C020C2A0ED851
:1032E000DFE802F0070D0D0D090D0D0D560D0D0D4A
:1032F0000B000022C1E70422BFE70822BDE710222D
:10330000BBE702F5E432D2F8882002F03002102A3E
:1033100040D005D9202A3FD0302A06D10822ACE778
:103320000AB90022A9E71022A7E71022A5E702F5B3
:10333000E232D2F8882002F0C002402A2ED005D90D
:10334000802A2DD0C02A06D1082296E70AB9002289
:1033500093E7102291E710228FE702F5C832D2F8E6
:10336000882002F44062B2F5806F1BD007D9B2F515
:10337000006F19D0B2F5406F06D108227DE70AB977
:1033800000227AE7102278E7102276E7022274E71B
:10339000022272E7042270E702226EE704226CE741
:1033A00002226AE7042268E7022266E7082A00F29E
:1033B000B380DFE802F008B110B10DB1B1B1050082
:1033C0004FF4004008E0FEF765FE28B9002090E0C9
:1033D000FEF71AFDF9E73548626A354B33F81220DB
:1033E000B0FBF2F3656805EB4501994200F2968067
:1033F000B3EB053F00F294804FF0000892B2002337
:103400004146FDF70DFB0F0247EA10670602680808
:103410002A46434616EB000847F100094046494654
:10342000FDF7FEFAA0F54072224B9A427AD8236843
:10343000D86000205DE0082A76D8DFE802F0072790
:1034400005753D7575750B00184803E0FEF722FE03
:1034500000286BD0626A164B33F81230B0FBF3F0E1
:103460006268530803EB4000B0FBF2F0A0F11002D9
:103470004FF6EF739A425BD883B223F00F03C0F389
:10348000420018432368D860002032E0FEF714FEA3
:10349000DEE700BFF369FFCF008000400038014045
:1034A0000044004000480040004C00400024F4006C
:1034B00094460008FFFC0F00FEF7A6FCC8E7204872
:1034C00002E0FEF7E7FDB8B3626A1E4B33F8123034
:1034D000B0FBF3F0636800EB5300B0FBF3F0A0F136
:1034E00010024FF6EF739A4228D8236880B2D86052
:1034F00000200123A4F86A30A4F868300023236771
:103500006367BDE8F883FEF7D7FDDCE7FEF77CFCD8
:10351000D9E74FF40040D7E70120EAE70120E8E7C8
:103520000120E6E70120E4E70120E2E70020E0E7F0
:103530000120DEE70120DCE70020DAE70120D8E700
:103540000024F40094460008836A13F0010F06D0AB
:103550000268536823F40033C16A0B435360836AE3
:1035600013F0020F06D00268536823F48033016B16
:103570000B435360836A13F0040F06D0026853684C
:1035800023F48023416B0B435360836A13F0080FCD
:1035900006D00268536823F40043816B0B435360E9
:1035A000836A13F0100F06D00268936823F48053E7
:1035B000C16B0B439360836A13F0200F06D002683F
:1035C000936823F40053016C0B439360836A13F0F8
:1035D000400F0AD00268536823F48013416C0B43F8
:1035E0005360436CB3F5801F0BD0836A13F0800FD8
:1035F00006D00268536823F40023C16C0B43536068
:1036000070470268536823F4C003816C0B43536016
:10361000EBE72DE9F04104460F4616469846069D15
:103620002368DB6937EA03030CBF01230023B3429D
:1036300055D1B5F1FF3FF3D0FEF72CF9A0EB080010
:10364000A8422DD865B323681A6812F0040FE7D09A
:10365000DA6912F4006FE3D04FF400621A62226854
:1036600052E8003F23F4D07342E800310029F6D13C
:10367000226802F1080353E8003F23F001030832F7
:1036800042E800310029F3D12023C4F88430C4F883
:103690008830C4F88C30002384F8803003201FE089
:1036A000226852E8003F23F4D07342E80031002939
:1036B000F6D1226802F1080353E8003F23F001032A
:1036C000083242E800310029F3D12023C4F88430C5
:1036D000C4F88830002384F88030032000E0002004
:1036E000BDE8F08130B583B004460023C0F88C30CB
:1036F000FEF7D0F8054623681B6813F0080F0FD1BA
:1037000023681B6813F0040F18D12023C4F88430F9
:10371000C4F888300020E06684F8800003B030BD33
:103720006FF07E430093034600224FF400112046C1
:10373000FFF76FFF0028E3D00320EFE76FF07E4331
:1037400000932B4600224FF480012046FFF761FFD3
:103750000028DAD00320E1E778B310B50446D0F8AA
:1037600084300BB32423C4F884302268136823F018
:10377000010313602046FFF743FD012813D0A36A1D
:10378000BBB92268536823F490435360226893685E
:1037900023F02A0393602268136843F00103136047
:1037A0002046FFF79FFF10BD80F88030FDF7CAFC70
:1037B000D8E72046FFF7C8FEE3E701207047000086
:1037C00010B504468165A0F85C200023C0F88C3059
:1037D0002223C0F88830C36F93B12349D962C36FE5
:1037E00022491963C36F22495963C36F002199634A
:1037F00001681346826D2431C06FFEF787FF38BB26
:10380000002384F88030236943B1226852E8003FE6
:1038100043F4807342E800310029F6D1226802F1B6
:10382000080353E8003F43F00103083242E8003147
:103830000029F3D1226802F1080353E8003F43F066
:103840004003083242E800310029F3D1002010BDC6
:103850001023C4F88C30002384F880302023C4F86F
:1038600088300120F3E700BF7131000855310008AE
:10387000B92D0008436E2BB90123A0F86A30A0F8D7
:103880006830704730B403689A68C2F3426299683E
:10389000490F094D6B5CDB00084C615C93FBF1F355
:1038A000A0F86A30AB5CDB00A25C93FBF2F3A0F8FB
:1038B000683030BC704700BFB4460008AC46000812
:1038C00070477047704790F88030012B18D0012363
:1038D00080F880302423C0F8843003681A6819689F
:1038E00021F00101196022F00052002343660168B3
:1038F0000A602022C0F8842080F880301846704783
:103900000220704738B590F88030012B1DD0044656
:10391000012380F880302423C0F8843003681D68B8
:103920001A6822F001021A600268936823F060436B
:1039300019439160FFF79EFF23681D602023C4F8A0
:103940008430002084F8800038BD0220FCE738B5C0
:1039500090F88030012B1DD00446012380F8803080
:103960002423C0F8843003681D681A6822F001021D
:103970001A600268936823F0606319439160FFF74F
:1039800079FF23681D602023C4F88430002084F868
:10399000800038BD0220FCE7D0F88830202B22D1EF
:1039A00021B32AB390F88030012B23D010B5044600
:1039B000012380F88030C366FFF702FF034618B981
:1039C000E26E012A02D00123184610BD22681021A0
:1039D0001162216851E8002F42F0100241E80020F6
:1039E0000028F6D1F0E70223184670470123FBE7D1
:1039F0000123F9E70223F7E710B4036A046A24F00D
:103A000001040462846924F0F00444EA021223F001
:103A10000A030B43826103625DF8044B704710B4E4
:103A2000036A23F0100303628469036A24F4704478
:103A300044EA023223F0A00343EA011382610362E5
:103A40005DF8044B7047836823F4401323F0700340
:103A5000194341F0070181607047000090F83D3044
:103A6000DBB2012B32D1022380F83D300268D368EB
:103A700043F00103D3600368174A934218D0B3F1AF
:103A8000804F15D0A2F59432934211D002F5806296
:103A900093420DD002F59632934209D002F540626E
:103AA000934205D01A6842F001021A600020704764
:103AB00099680A4A0A40062A0AD0B2F5803F09D01E
:103AC0001A6842F001021A60002070470120704716
:103AD0000020704700207047002C014007000100C3
:103AE0000268D36823F00103D3600368196A41F2C6
:103AF0001112114208D1196A44F24442114203D111
:103B00001A6822F001021A60012380F83D3000207B
:103B100070477047704770477047704710B504464C
:103B200003681A6912F0020F12D0DA6812F0020F5D
:103B30000ED06FF002021A610123037703689B69BC
:103B400013F0030F00F09F80FFF7E5FF00232377BA
:103B500023681A6912F0040F13D0DA6812F0040F08
:103B60000FD06FF004021A610223237723689B6948
:103B700013F4407F00F08D802046FFF7CCFF002338
:103B8000237723681A6912F0080F12D0DA6812F04E
:103B9000080F0ED06FF008021A6104232377236800
:103BA000DB6913F0030F7BD02046FFF7B4FF00233F
:103BB000237723681A6912F0100F12D0DA6812F016
:103BC000100F0ED06FF010021A61082323772368BC
:103BD000DB6913F4407F6AD02046FFF79CFF002387
:103BE000237723681A6912F0010F03D0DA6812F004
:103BF000010F63D123681A6912F0800F03D0DA68CD
:103C000012F0800F61D123681A6912F4807F03D00B
:103C1000DA6812F0800F5FD123681A6912F0400F42
:103C200003D0DA6812F0400F5DD123681A6912F0F0
:103C3000200F03D0DA6812F0200F5BD123681A69D5
:103C400012F4801F03D0DA6812F4801F59D1236860
:103C50001A6912F4001F03D0DA6812F4001F57D15A
:103C600023681A6912F4800F03D0DA6812F4800F07
:103C700055D123681A6912F4000F03D0DA6812F4E0
:103C8000000F53D110BDFFF745FF2046FFF744FF5B
:103C90005CE72046FFF73EFF2046FFF73DFF6EE75B
:103CA0002046FFF737FF2046FFF736FF7FE7204625
:103CB000FFF730FF2046FFF72FFF90E76FF001027C
:103CC0001A612046FFF725FF94E76FF080021A6122
:103CD000204600F0AAF996E76FF480721A61204638
:103CE00000F0A4F998E76FF040021A612046FFF750
:103CF00014FF9AE76FF020021A61204600F094F951
:103D00009CE76FF480121A61204600F090F99EE75C
:103D10006FF400121A61204600F08AF9A0E76FF4F0
:103D200080021A61204600F084F9A2E76FF40002D5
:103D30001A61204600F07EF9A4E7000003682C4ACF
:103D400090420ED0B0F1804F0BD0A2F59432904249
:103D500007D002F58062904203D002F5963290427D
:103D600003D123F070034A681343214A90421AD0CA
:103D7000B0F1804F17D0A2F59432904213D002F5E3
:103D8000806290420FD002F5963290420BD002F53D
:103D90004062904207D002F58062904203D002F563
:103DA0008062904203D123F44073CA68134323F026
:103DB00080034A69134303608B68C3620B688362A4
:103DC0000B4B98420FD003F5006398420BD003F5DC
:103DD0004063984207D003F58063984203D003F50F
:103DE0008063984201D10B690363012343617047EB
:103DF000002C014060B310B5044690F83D3013B379
:103E0000022384F83D30214651F8040BFFF796FF5A
:103E1000012384F8483084F83E3084F83F3084F839
:103E2000403084F8413084F8423084F8433084F8DC
:103E3000443084F8453084F8463084F8473084F8BC
:103E40003D30002010BD80F83C30FDF767FAD7E721
:103E50000120704710B4846824F47F4442EA0323AD
:103E60000B43234383605DF8044B704790F83C306C
:103E7000012B00F0878010B50446012380F83C3008
:103E8000022380F83D30026890683F4B0340936006
:103E90000B68702B35D012D8302B6DD007D9502B32
:103EA00049D0602B52D0402B5BD0012017E0102B63
:103EB00062D0202B60D0002B5ED001200FE0334A6F
:103EC000934259D012D8B3F5005F27D0B3F1101F39
:103ED00052D0B3F5805F01D1002000E00120012322
:103EE00084F83D30002384F83C3010BD284A9342CA
:103EF00042D0303293423FD0403A93423CD00120EE
:103F0000EDE7CB684A6889682068FFF7A3FF22685D
:103F1000936843F0770393600020E0E7CB684A683A
:103F200089682068FFF796FF2268936843F480430E
:103F300093600020D3E7CA6849682068FFF75CFDFA
:103F400050212068FFF77FFD0020C8E7CA68496854
:103F50002068FFF764FD60212068FFF774FD0020F2
:103F6000BDE7CA6849682068FFF746FD4021206820
:103F7000FFF769FD0020B2E719462068FFF763FDEF
:103F80000020ACE7022070478800CEFF2000100020
:103F90004000100090F83C30012B40D030B4012399
:103FA00080F83C30022380F83D3002685368956801
:103FB0001C4CA24203D004F50064A24203D123F4B6
:103FC00070034C68234323F0007323F070030C68E4
:103FD000234353600368134A934212D0B3F1804FD6
:103FE0000FD0A2F5943293420BD002F58062934237
:103FF00007D002F59632934203D002F54062934215
:1040000004D125F080058A6815439D60012380F85E
:104010003D30002380F83C30184630BC7047022009
:10402000704700BF002C01407047704770477047D1
:104030007047704770470000034AD2F8883043F455
:104040007003C2F88830704700ED00E038B50121F8
:104050000848FEF78BFA084C2070084D02212846CC
:10406000FEF784FA607001212846FEF77FFAA070FF
:1040700038BD00BF00040048BC0100200008004813
:104080000A4B1B680A4AD15C0A4A11700A49C95C8A
:1040900051700A49C95C9170822B03D9034B0022ED
:1040A0001A6070470133014A13607047CC01002049
:1040B00014000020BC010020980000201C010020FA
:1040C000084B33F81030012B00D07047064B1B5CB7
:1040D0001BB9054B01221A547047034B00221A5496
:1040E000F3E700BFC4010020BC0100200B4B33F8F4
:1040F000103023B90A4B1A780A4B1A547047012B17
:1041000002D0022B05D07047054B5A78054B1A5444
:104110007047034B9A78034B1A54F4E70C000020C5
:10412000BC010020C001002038B5094D094C2A7897
:1041300010212046FEF721FA6A7820212046FEF75A
:104140001CFAAA7808212046FEF717FA38BD00BFEE
:10415000C00100200004004808B50E4B1B68B3B92D
:10416000FFF774FF0020FFF7ABFF0120FFF7A8FF68
:104170000220FFF7A5FF0020FFF7B8FF0120FFF79F
:10418000B5FF0220FFF7B2FFFFF7CEFF08BDFFF734
:1041900077FFE7E7D802002008B54FF460720249C4
:1041A0000248FEF713FD08BD5C4D0008B403002073
:1041B00038B51F4B1B78012B02D00024204638BD98
:1041C0001C4B1A781C4B1978551A002D09DD002359
:1041D0009D420FD9C818194C205C0D2817D0013307
:1041E000F6E70024134B1A78134B1A70104B002279
:1041F0001A70E3E7002464B9521A92B20F4B1944C3
:104200000F48FEF7E3FC1920FDF74AFBEAE701241B
:10421000F1E70A4B0A209854521A92B2013292B234
:1042200019440748FEF7D2FC1920FDF739FBD9E7FE
:10423000D4020020D5020020D0010020D4010020AB
:10424000B403002010B504462849FCF7FDF9D0B9A5
:1042500027492046FCF7F8F900BB26492046FCF721
:10426000F3F9002840D0244B1B688BBB224B012262
:104270001A603220FDF714FB152220492048FEF772
:10428000A5FC012009E03220FDF70AFB40F2532291
:104290001C491B48FEF79AFC012010BD3220FDF797
:1042A000FFFA192218491648FEF790FC174C002215
:1042B0004FF400712046FEF760F96420FDF7F0FA34
:1042C00001224FF400712046FEF757F90120E4E780
:1042D000094B00221A603220FDF7E2FA16220C493F
:1042E0000748FEF773FCCCE70020D6E7004B000838
:1042F0003C510008F44A0008D8020020245100086C
:10430000B4030020084B00084C510008000400488A
:1043100000510008F0B402460846002401E0013CC8
:1043200001340D46A14218D9135D7F2BF8D14CB949
:10433000013880B223469D42F1D95E1C975DD75467
:104340003346F8E7023880B223469D42E8D95E1C26
:10435000013B975DD7543346F7E7F0BC70470378CD
:10436000413B222B17D8DFE803F01219141616165A
:1043700016161616161616161616161616161616DD
:1043800016161616161616161616121914000020F2
:104390007047022070474FF6FF707047012070474A
:1043A0000378212B01D000207047012070470000C6
:1043B000F0B585B006460A463D4B93E803000290EF
:1043C000ADF80C100090ADF8041011463046FFF720
:1043D000A1FF0746002425460AE0601E3044FFF78F
:1043E000DFFF04AB03EB450323F8100C0135013468
:1043F000A74214D93019FFF7B2FF4FF6FF73984266
:10440000F5D004AB03EB450323F8080C002CE4D1F2
:10441000002204AB03EB450323F8102CE6E700234E
:10442000022B13D804AA02EB430232F8081C4FF601
:10443000FF7291421BD004AA02EB430232F8101C17
:104440004FF6FF72914215D00133E9E700231A4677
:10445000032D01D102B9F3B13220FDF721FA222256
:1044600014491548FEF7B2FB002005B0F0BD00234B
:104470000122EDE701230022EAE704AA02EB43024E
:1044800032F8080C0D4921F8130032F8101C0C4AC0
:1044900022F813100133022BEFD93220FDF700FA76
:1044A0000B2208490448FEF791FB0120DDE700BF1D
:1044B0008C460008DC500008B40300200C000020EB
:1044C000C40100201851000810B5074C2046FEF723
:1044D000DBFB0A20FDF7E4F94FF480720349204624
:1044E000FFF75AFA10BD00BFB4030020D40100202A
:1044F00008B5084B1A68136823F004031360064BD1
:104500001A68136823F004031360FFF7DDFFFFF759
:1045100043FE08BDD40400203405002008B5FFF791
:1045200047FE012800D008BD0A4B19780A48FFF75A
:1045300089FE012807D10023084A1370054A137029
:10454000FFF7C2FFEFE7034B19780348FFF730FF8F
:10455000F1E700BFD0010020D4010020D5020020E7
:1045600070470000024B01221A70024B197070470D
:10457000D4020020D502002070B582B000240D4B7B
:104580001C600D4D2846FFF7ABFA0C4E00948423B7
:104590000B4A21463046FCF74DFF00948423094A1C
:1045A00010213046FCF746FF2846FFF757FA02B0C5
:1045B00070BD00BFCC010020940500204003002006
:1045C000D4460008E448000838B5084C2046FFF7F8
:1045D00087FA074D00212846FCF7B2FF1021284634
:1045E000FCF7AEFF2046FFF739FA38BD94050020EE
:1045F0004003002008B5084B1B68084A1268934224
:1046000006D033B9FFF7E0FF034B1A68034B1A607B
:1046100008BDFFF7B1FFF7E7D8020020DC02002059
:104620000D4885460D480E490E4A002302E0D45835
:10463000C4500433C4188C42F9D30B4A0B4C0023EA
:1046400001E013600432A242FBD3FFF7F5FCFBF755
:104650001BFEFCF7A1FBFEE700800020000000200D
:10466000A001002078510008A0010020E4050020EE
:10467000FEE70000F8B500BFF8BC08BC9E467047D6
:0C468000F8B500BFF8BC08BC9E467047AF
:10468C00FFFFFFFFFFFF0000010002000400060017
:10469C0008000A000C0010002000400080000001FF
:1046AC0008040204080101010101010307010000D3
:1046BC0000000000000000000102030406070809C6
:1046CC000000000001020304EC07000014080000C5
:1046DC0004080000260800002B0800002E0800002B
:1046EC005D0800005908000089080000A3080000BC
:1046FC00BA080000FC08000007090000350900009A
:10470C006A0900009F0900000E0A00006A0A0000F6
:10471C00DB0A00001C0B00005C0B0000C80B000047
:10472C001B0C0000820C0000DA0C0000160D0000BF
:10473C00440D0000590D00005E0D00003E0D000000
:10474C00170D0000EE0C0000D90C0000C80C000086
:10475C00A10C0000830C0000380C0000E40B0000DE
:10476C008B0B0000240B0000300B0000530B0000DF
:10477C00A70B0000FD0B0000550C0000EB0C00001B
:10478C00490D0000BE0D00000C0E0000210E0000B3
:10479C004E0E0000260E0000060E0000E80D000074
:1047AC00940D0000790D00002A0D0000DB0C0000B8
:1047BC006C0C0000870B0000B70A00008E0900008B
:1047CC007F08000005080000BA070000C2070000BF
:1047DC00A8070000930700009E0700006F07000069
:1047EC007D070000680700004E0700004907000025
:1047FC001607000005070000E2060000A9060000ED
:10480C009B060000610600003B060000FD05000051
:10481C008C050000320500009C04000042040000DE
:10482C00FC0300008503000028030000A102000027
:10483C0030020000CB0100007F0100005401000099
:10484C00360100004A0100006D010000A3010000C8
:10485C00C5010000DD0100000D0200003502000062
:10486C007F020000D102000036030000B1030000FB
:10487C00E2030000CE0300007D03000013030000E0
:10488C00B7020000140200009501000005010000B1
:10489C00940000005D0000001D0000002E000000D0
:1048AC00460000007A000000E40000000E01000049
:1048BC0075010000CB0100002F0200000A0300006C
:1048CC00DB03000021050000670600006B070000F9
:1048DC00D6070000CF070000CF0100003701000011
:1048EC00D20000006A0000002D0000000200000051
:1048FC00000000002600000055000000A70000008A
:10490C00DC0000001E01000059010000AB0100009A
:10491C0026020000B502000060030000F303000053
:10492C00530400004B0400000F040000D4030000EB
:10493C00850300003A030000EA020000AB0200000D
:10494C00A50200008C020000B2020000D60200009A
:10495C0010030000730300009B030000E50300003C
:10496C00170400005E040000FF0400008E05000028
:10497C00470600000807000058070000AD070000BC
:10498C009E070000B1070000C9070000C707000020
:10499C00ED070000E9070000F00700001C0800000C
:1049AC0013080000360800005108000068080000D9
:1049BC00A6080000B0080000DE0800001A0900007C
:1049CC0042090000A7090000FD090000830A00004D
:1049DC00270B0000880B0000E70B00004B0C0000BD
:1049EC00C40C0000540D0000CA0D00003D0E000068
:1049FC00980E0000DE0E0000010F0000FB0E000000
:104A0C00E30E0000C20E0000AE0E00008A0E000085
:104A1C00590E0000170E0000B20D00002D0D000005
:104A2C00910C0000DE0B0000520B00003C0B000050
:104A3C006E0B0000A50B00000E0C00006A0C0000B1
:104A4C00E00C00003E0D0000650D0000930D000011
:104A5C00830D0000710D0000340D0000CA0C000025
:104A6C00930C00003A0C0000FE0B0000AB0B000096
:104A7C000D0B00007A0A0000AC090000C108000010
:104A8C000408000091070000980700008B07000045
:104A9C006C07000068070000440700004407000092
:104AAC00430700001807000025070000030700005B
:104ABC00E7060000D6060000950600008A060000F6
:104ACC005C06000025060000FE05000095050000B0
:104ADC0042050000BC0400000D0400006C03000043
:104AEC00F902000096020000656D756C6174696FC7
:104AFC006E00000068656C70000000000A0D252532
:104B0C002525252525252525252525252525252549
:104B1C002525252525252525252525252525252539
:104B2C00252548454C502525252525252525252594
:104B3C002525252525252525252525252525252519
:104B4C002525252525252525252525252525252509
:104B5C002525252525250A0D486F7720746F20758E
:104B6C00736520746869732068616C6C5F65727220
:104B7C006F725F656D756C61746F723A0A0D747942
:104B8C007065202241424322202B20656E74657291
:104B9C0020666F722074686520656D756C61746F2A
:104BAC007220746F20666F77617264207468652060
:104BBC0068616C6C207369676E616C732061732023
:104BCC007468657920636F6D652C206E6F2065723B
:104BDC00726F72730A0D2D6F72646572206572723A
:104BEC006F723A202242414322202B20656E74655D
:104BFC007220666F722074686520656D756C6174C7
:104C0C006F7220746F2073776170204120616E6425
:104C1C00204220696E707574730A0D2D706F6C6173
:104C2C0072697479206572726F723A202221414246
:104C3C004322202B20656E74657220666F7220747F
:104C4C00686520656D756C61746F7220746F206C73
:104C5C006F676963616C6C79206E65676174652040
:104C6C00696E707574204120616E64206C6561768C
:104C7C006520696E70757473204220616E642043E8
:104C8C00206173207468657920636F6D650A0D650A
:104C9C0078616D706C653A20747970696E6720224A
:104CAC002141432142222B20656E74657220776965
:104CBC006C6C207377617020746865206F7264650A
:104CCC0072206F66207369676E616C73204220617D
:104CDC006E64204320616E64206E6567617465208C
:104CEC007369676E616C73204120616E6420422091
:104CFC000A0D0A0D252525252525252525252525BE
:104D0C002525252525252525252525252525252547
:104D1C002525252525252525252525252525252537
:104D2C002525252525252525252525252525252527
:104D3C002525252525252525252525252525252517
:104D4C002525252525252525252525250A0D000084
:104D5C000A0D25252525252525252525252525252A
:104D6C0025252525252525252525252525252525E7
:104D7C00252525252525484F4C4125252525252547
:104D8C0025252525252525252525252525252525C7
:104D9C0025252525252525252525252525252525B7
:104DAC00252525252525252525250A0D54686973D6
:104DBC0020636F6465202268616C6C5F6572726F32
:104DCC00725F656D756C61746F72222077617320F0
:104DDC006D616465206279206A61766965722E6DF9
:104DEC00756E6F7A2E7361657A407570632E65648B
:104DFC00750A0D636F6D70696C6564206F6E3A2077
:104E0C0032322D6E6F762D323032330A0D73746F51
:104E1C0072656420696E2074686520696E746572B1
:104E2C006E616C2043495443454127732067697474
:104E3C006C6162207265706F3A200A0D2068747480
:104E4C00703A2F2F736572762D6369746365612DCB
:104E5C003130302E7570632E6564753A33303030D6
:104E6C00302F6A6176692F616C676F7269746D6F30
:104E7C005F706172615F64657465726D696E617299
:104E8C005F6572726F7265735F656E5F73656E736B
:104E9C006F7265735F68616C6C0A0D0A0D546869FA
:104EAC007320636F6465206973206D65616E742077
:104EBC00746F2062652072756E20696E2061204EC1
:104ECC0055434C454F2D4647343331524220626F87
:104EDC0061726420616E64206861732074776F2046
:104EEC006D61696E2066756E6374696F6E733A0AD4
:104EFC000D312D73776170207265616C20696E6362
:104F0C006F6D696E672068616C6C207369676E6188
:104F1C006C73206368616E67696E672069747320B7
:104F2C006F7264657220616E642F6F7220706F6C8B
:104F3C006172697479322D656D756C61746520616F
:104F4C0020636F6E7374616E74207370656564207A
:104F5C006D6F746F72207769746820616C6C20744B
:104F6C00687265652068616C6C7320616E64207476
:104F7C00776F207265616C2063757272656E742038
:104F8C007369676E616C732D494E505554533A20BA
:104F9C00756172742D5553422873746C696E6B294C
:104FAC00206272696467652066726F6D2074686533
:104FBC002075736572207769746820746578742025
:104FCC00636F6D6D616E64730A0D2D494E505554AF
:104FDC00533A2074687265652028616C6567656456
:104FEC006C79206865616C746879292073717561BE
:104FFC007265207369676E616C732066726F6D20C9
:10500C007468726565207265616C2068616C6C20D7
:10501C0073656E736F72730A0D2D4F555450555442
:10502C00533A2073616D65207468726565207371E5
:10503C0075617265207369676E616C732077697432
:10504C0068207468652064657369676E6174656453
:10505C00206F726465722C706F6C61726974792C3C
:10506C0020616E64207068617365206572726F7266
:10507C00730A0D0A0D2525252525252525252525EC
:10508C0025252525252525252525252525252525C4
:10509C0025252525252525252525252525252525B4
:1050AC0025252525252525252525252525252525A4
:1050BC002525252525252525252525252525252594
:1050CC00252525252525252525252525250A0D00DC
:1050DC003E3E202020207768617420776173207415
:1050EC006861743F2C2074727920616761696E0A63
:1050FC000D0000003E3E20202020656D756C617413
:10510C00696F6E206F66660A0D0000003E3E20201F
:10511C0020206F6B0A0D00003E3E20202020656D84
:10512C00756C6174696F6E206F6E0A0D0000000063
:10513C007265736574207461726765740000000099
:10514C003E3E09746172676574206A7573742072CF
:0C515C006573657465640A0D00000000B6
:08516800E8B8FF7F0100000020
:0451700069020008C8
:0451740041020008EC
:1051780001000000100000000024F40000000100FD
:105188000200000001000000000000000000000014
:105198000000000000000000000000000000000007
:1051A80000000000000000000000000000000000F7
:1051B80000000000000000000000000000000000E7
:1051C80000000000000000010101010101010101CE
:1051D80001010101010101010101010101010101B7
:1051E80001010101010101010101010101010101A7
:1051F8000101010101010101010101010101010197
:105208000101010101010101010101010101010186
:105218000101010101010101010101010101010176
:105228000101010101010101010101010101010166
:105238000101010000000000000000000000000063
:105248000000000000000000000000000000000056
:105258000000000000000000000000000000000046
:105268000000000000000000000000000000000036
:10527800000000000001010101010101010101011B
:10528800010101010101010101010101000000000A
:105298000000000000000000000000000000000006
:1052A80001010101010101010101010101010101E6
:1052B80001010101010101010101010101010101D6
:1052C80001010101010101010101010101010101C6
:1052D80001010101010101010101010101010101B6
:1052E80001010100000000000000000000000000B3
:1052F80000000000000000000000000000000000A6
:105308000000000000000000000000000000000095
:040000050800462188
:00000001FF
