:020000040800F2
:100000000000022019300008991000089B10000819
:100010009D1000089F100008A110000800000000BB
:10002000000000000000000000000000A310000815
:10003000A510000800000000A7100008A910000883
:10004000693000086930000869300008693000082C
:10005000693000086930000869300008693000081C
:10006000693000086930000869300008693000080C
:1000700069300008693000086930000869300008FC
:1000800069300008B11000086930000869300008C4
:1000900069300008693000086930000869300008DC
:1000A00069300008693000086930000869300008CC
:1000B00069300008693000086930000869300008BC
:1000C00069300008693000086930000869300008AC
:1000D000693000086930000869300008693000089C
:1000E000693000086930000869300008693000088C
:1000F000C110000869300008693000086930000844
:10010000693000086930000869300008693000086B
:10011000693000086930000869300008693000085B
:10012000F5100008693000086930000869300008DF
:10013000693000080000000000000000693000087D
:10014000693000086930000869300008693000082B
:10015000693000086930000869300008693000081B
:10016000693000086930000869300008693000080B
:10017000693000086930000869300008000000009C
:1001800000000000693000080000000000000000CE
:10019000693000080000000000000000693000081D
:1001A00000000000000000000000000069300008AE
:1001B00069300008693000086930000869300008BB
:0401C000693000089A
:1001C4000348044B834202D0034B03B118477047E2
:1001D40028000020280000200000000005480649EF
:1001E400091A891001EBD171491002D0034B03B1F4
:1001F4001847704728000020280000200000000055
:1002040010B5064C237843B9FFF7DAFF044B13B15A
:100214000448AFF300800123237010BD28000020A0
:10022400000000006C30000808B5044B1BB1044901
:100234000448AFF30080BDE80840CFE700000000A9
:100244002C0000206C30000870B50D4E0D4D761B4F
:10025400B61006D00024013455F8043B9847A64252
:10026400F9D1094E094D761B02F0FEFEB61006D0F8
:100274000024013455F8043B9847A642F9D170BDD7
:10028400AC300008AC300008B0300008AC300008D6
:10029400F0B4860746D0541E002A3CD0CAB20346A6
:1002A40002E014F1FF3436D303F8012B9D07F8D193
:1002B400032C29D9CDB245EA05250F2C45EA05457D
:1002C40033D9A4F11006360903F1200707EB06170A
:1002D40003F1100242E9045542E902551032BA42D0
:1002E400F8D1721C14F00C0F03EB021204F00F0689
:1002F40013D0331F23F003030433134442F8045B85
:100304009342FBD106F003042CB1C9B21C4403F898
:10031400011B9C42FBD1F0BC704734461346002CB1
:10032400F3D1F8E714460346C2E71A462646E0E747
:1003340053B94AB9002908BF00281CBF4FF0FF3148
:100344004FF0FF3000F074B9ADF1080C6DE904CE44
:1003540000F006F8DDF804E0DDE9022304B070479C
:100364002DE9F047089E04468846002B40F085801E
:100374008A42154648D9B2FA82F24AB1C2F120073C
:1003840001FA02F320FA07F7954047EA030894407C
:100394004FEA154E230CB8FBFEF71FFA85FC0EFB43
:1003A400178843EA084307FB0CF1994209D9EB1873
:1003B40007F1FF3080F0E380994240F2E080023F91
:1003C4002B445B1AA4B2B3FBFEF00EFB103344EAD9
:1003D400034400FB0CFCA44509D92C1900F1FF339C
:1003E40080F0CB80A44540F2C88002382C4440EA17
:1003F4000740A4EB0C0400271EB1D4400023C6E937
:1004040000433946BDE8F087002A53D0B2FA82F29D
:10041400002A40F0B680491B4FEA154E1FFA85F8B2
:100424000127B1FBFEFC230C0EFB1C1143EA014324
:1004340008FB0CF1994207D9EB180CF1FF3002D2FA
:10044400994200F2EC808446591AA3B2B1FBFEF043
:100454000EFB101443EA044408FB00F8A04507D936
:100464002C1900F1FF3302D2A04500F2DC801846BB
:10047400A4EB080440EA0C40BEE78B4208D9002EE6
:1004840078D00027C6E9000138463946BDE8F08730
:10049400B3FA83F77FB98B4202D3824200F2BD8064
:1004A400841A61EB030301209846002EA9D0C6E903
:1004B4000048A6E7FFDEC7F12005BB4022FA05FC91
:1004C4004CEA030C01FA07F420FA05F821FA05F3C3
:1004D4004FEA1C4E48EA0404B3FBFEF9210C0EFB60
:1004E40019331FFA8CF841EA034309FB08FA9A45C9
:1004F40002FA07F200FA07F10BD91CEB030309F126
:10050400FF3080F088809A4540F28580A9F1020985
:100514006344A3EB0A03A4B2B3FBFEF00EFB103357
:1005240044EA034400FB08F8A04508D91CEB040482
:1005340000F1FF336BD2A04569D90238644440EA24
:100544000940A4EB0804A0FB02894C45C6464B466F
:1005540054D351D0002E69D0B1EB0E0264EB0304E6
:1005640004FA05F522FA07F3FC401D43C6E90054DA
:10057400002746E73746304643E7184637E707463D
:100584001FE7C2F1200320FA03F7954001FA02F0B5
:1005940021FA03F34FEA154E3843010CB3FBFEF77F
:1005A4001FFA85F80EFB173341EA034107FB08F3F2
:1005B4008B4204FA02F407D9691807F1FF3C28D2E8
:1005C4008B4226D9023F2944CB1A81B2B3FBFEF0F9
:1005D4000EFB103341EA034100FB08F38B4207D9B9
:1005E400691800F1FF3C10D28B420ED9023829441D
:1005F400C91A40EA074714E74145ABD2B8EB020EEB
:1006040069EB0C0201381346A4E76046F0E718468C
:1006140095E76746D8E781467BE7384645E7ACF17E
:10062400020C2B4410E702382C4421E73746E8E655
:10063400704700BF00B585B0002300930193029377
:1006440003931D481D4A02604FF480324260836068
:1006540001220261027680F820304FF08051C1629D
:100664004FF060618162C3600221C16180F8302073
:10067400436101F07BFEA8B9002300930123019399
:10068400029369460C4801F0B7FF70B90123009347
:10069400022301936946084801F0AEFF40B905B052
:1006A4005DF804FB00F030FCE6E700F02DFCEDE71C
:1006B40000F02AFCF3E700BF7C000020002001408A
:1006C40030B589B0002303930493059306930793ED
:1006D400026803F1804303F590339A4201D009B0D4
:1006E40030BD04460025019503F58C335A6C42F461
:1006F40080725A645A6C02F480720192019A0295D3
:100704001A6B42F001021A631B6B03F0010302939C
:10071400029B03230393049303A9104801F078F97F
:100724000F48104B036045608560C5604FF48063DB
:1007340003614FF4805343614FF4804383614FF46A
:100744008073C3610562456201F0DCFA18B9044B99
:10075400A3639C63C3E700F0D7FBF8E70000024003
:10076400C40000201064024010B582B0002400943C
:10077400124B1A6B42F480021A631A6B02F4800261
:100784000092009A01941A6B42F400121A631B6BD4
:1007940003F400130193019B22462146112001F02A
:1007A4008DFC112001F0BEFC22462146382001F0C8
:1007B40085FC382001F0B6FC02B010BD00380240C0
:1007C40070B588B0002403940494059406940794A7
:1007D4000094294B1A6B42F004021A631A6B02F05C
:1007E40004020092009A01941A6B42F001021A6307
:1007F4001A6B02F001020192019A02941A6B42F000
:1008040002021A631B6B03F002030293029B1B4D4B
:1008140022462021284601F0E6F94FF400530393C1
:100824004FF4041304930594154E03A9304601F0C4
:10083400EFF8022303930494059403A9304601F0CE
:10084400E7F8102303930494059403A9284601F0C0
:10085400DFF820230393012604960594069403A944
:10086400284601F0D5F803960494059403A9054895
:1008740001F0CEF808B070BD00380240000002401C
:100884000008024000040240014B01221A70704724
:1008940044000020034B1B78012B01D0012070473A
:1008A400002070474400002070B50E461546049998
:1008B400154A146854601C881460144A14685460FF
:1008C4000C881460124A146854601B8809880B440D
:1008D400C3F5C05313600F4C2368636081880068BC
:1008E40001F07AF920600C4C23686360B1883068A9
:1008F40001F072F92060094C23686360A9882868B4
:1009040001F06AF9206070BD7C010020E80100203C
:100914002401002050010020A8010020140200201E
:1009240030B401681D4B1B68CC1A4268D31A03FB10
:1009340004F3002B01DD30BC7047836A052BFAD821
:1009440093B99C1C164D2D6840F82450914206D949
:10095400C218002182F8201001338362EBE7C21829
:10096400012182F82010F7E70D4C25685C1C50F833
:1009740024402C1B0A2CDEDD9C1C40F824509142A0
:1009840006D9C218002182F8201001338362D2E70D
:10099400C218012182F82010F7E700BF00000020F0
:1009A4006C000020026843689A4218D0836A052BC1
:1009B40015D810B4991C0A4C246840F82140012A27
:1009C40008D0C218012182F82010013383625DF837
:1009D400044B7047C218002182F82010F5E77047D5
:1009E4006C00002008B50C4B1B68022B00D808BD16
:1009F4000A48FFF795FF0A48FFF792FF0948FFF7F7
:100A04008FFF0948FFF7CEFF0848FFF7CBFF0848E0
:100A1400FFF7C8FFEBE700BF6C0000207C0100205B
:100A2400E80100202401002050010020A80100203A
:100A340014020020114B9B6A052B16D9104B9B6A9C
:100A4400052B12D90F4B9B6A052B0ED90E4B9B6AB3
:100A5400052B0AD90D4B9B6A052B06D90C4B9B6AB7
:100A6400052B02D90023037070470A4B1B68B3F5AA
:100A74007A7F01D300230370704700BF7C010020FC
:100A8400E80100202401002050010020A8010020DA
:100A9400140200206C00002070B400252B46042DA5
:100AA40026D8174EEC1C56F82420A91C56F82160B1
:100AB400921B1344134E56F8242056F82160921BBF
:100AC4001344114E56F8242056F82160921B1A4400
:100AD4000E4E56F8243056F821609B1B1A440C4ED7
:100AE40056F8243056F821105B1A13440135D6E722
:100AF400084AA2FB0323DB085B00036070BC704759
:100B04007C010020E801002050010020A801002001
:100B1400140200201F85EB510028B8BF40427047E3
:100B24002DE9F84F07460026052E56D8B41C864BEF
:100B340053F824B0854B53F824A0ABEB0A00FFF71D
:100B4400EBFF834D2B6818442860824B53F82490A4
:100B5400ABEB0900FFF7E0FF6B68184468607E4B5D
:100B640053F82480ABEB0800FFF7D6FFAB681844BA
:100B7400A8607A4B53F824B0ABEB0A00FFF7CCFF24
:100B8400774D2B6818442860ABEB0900FFF7C4FFCE
:100B94006B6818446860ABEB0800FFF7BDFFAB68F7
:100BA4001844A8606F4B53F82450A5EB0A00FFF7D4
:100BB400B3FF6D4C236818442060A5EB0900FFF7D0
:100BC400ABFF636818446060A5EB0800FFF7A4FF5F
:100BD400A3681844A0600136A6E7002300E00133AF
:100BE400022B5ED85A4951F82300604A82FB005414
:100BF400A4EBE07041F82300594C54F8231082FB15
:100C04000165A5EBE17144F82310574C54F82350C7
:100C140082FB0562A2EBE57244F823203D686C0870
:100C2400A4F10A06B0420FD9A8420DD25048A0FB45
:100C34000450C00800EB80004500601B444C44F89D
:100C440023004C48012404603C686008A0F10A05B4
:100C5400A9420FD9A1420DD24549A1FB0041C908BF
:100C640001EB81014C00011B3D4840F82310414930
:100C74000120486038684108A1F10A04A242AED9B3
:100C84008242ACD23A4AA2FB0102D20802EB8202AF
:100C940050000A1A344941F82320364A0121916050
:100CA4009DE70023FF2200E00133022B06D82849E8
:100CB40051F823109142F7DA0A46F5E7002300E0E1
:100CC4000133022B08D8224951F823109142F7D15D
:100CD400F91800200871F3E70023FF2200E0013334
:100CE400022B06D81E4951F823109142F7DA0A461E
:100CF400F5E7002300E00133022B08D8184951F826
:100D040023109142F7D1F91801200871F3E7002369
:100D1400FF2200E00133022B06D8134951F82310B7
:100D24009142F7DA0A46F5E7002300E00133022B8B
:100D340008D80D4951F823109142F7D1F91802202F
:100D44000871F3E7BDE8F88F7C0100205001002012
:100D540048000020A801002014020020E80100201F
:100D6400540000202401002060000020ABAAAA2A1D
:100D7400CDCCCCCC700000200023022B1CD810B4A6
:100D840005E002440121D1710133022B11D8C218AC
:100D940012790A4951F8221091F82040084951F873
:100DA400231091F820108C42EBD102440021D17120
:100DB400EAE75DF8044B7047704700BF0400002069
:100DC4001000002008B5002303E02E4A2021D1544E
:100DD4000133072BF9D9002304E0012A0FD0022A9A
:100DE40013D00133022B16D8274A1A441279002A49
:100DF400F3D15A000132234941208854F1E75A00C3
:100E04000132204942208854EBE75A0001321D493F
:100E140043208854E5E7002304E01B4A1A440121D7
:100E2400D1710133022B0ED8184A52F82320012A1B
:100E3400F7D1154A1A44D279012AEED1124A1A443A
:100E44000021D171EDE7002304E00E4A202102F8CD
:100E540013100133022B0BD80B4A1A44D279012AFE
:100E6400F3D0002AF5D1074A212102F81310F0E744
:100E740004490A238B710D23CB710822044802F024
:100E840021F808BDD4010020DC01002070000020FE
:100E940008030020037803B1704710B5064C2046C0
:100EA400FFF7FAFD2046FFF73BFE2046FFF764FFFD
:100EB400FFF788FF10BD00BFDC010020F0B583B050
:100EC4000F4C2478012C01D003B0F0BD16460D461A
:100ED4000446089A00923246FFF7E6FCFFF782FDCB
:100EE400074F3846FFF7A6FD33462A4621463846C3
:100EF400FFF7D0FF034A136801331360E4E700BF30
:100F0400440000206C00002072B6FEE700B595B0E6
:100F14003422002107A8FFF7BBF9002302930393AF
:100F24000493059306930093224A116C41F0805177
:100F34001164126C02F080520092009A01931E4ACE
:100F4400116841F440411160126802F44042019278
:100F5400019A0222079201210A9110210B910D920C
:100F64000E9308230F93B4231093119212921392A9
:100F740007A800F02DFBB0B901F04EF8A8B90F2373
:100F8400029302230393002304934FF4A053059385
:100F94004FF480530693052102A800F083F930B979
:100FA40015B05DF804FBFFF7AFFFFFF7ADFFFFF7E8
:100FB400ABFF00BF003802400070004008B51C4B76
:100FC4001C4A1A6010229A8000229A711A4B1B49FB
:100FD4001960012199809A71194B1A4919600224E8
:100FE4009C809A7101F0E8F8FFF790FFFFF7E8FBA7
:100FF400FFF7BAFBFFF71EFB00F0E4F800F08AF8F5
:1010040022461149114801F0DDF9114801F0F6FBBF
:10101400FFF73AFC06E0412001F0FAF820210548E8
:1010240000F0E7FDFFF736FC0028FBD0F3E700BF34
:101034005802002000000240500200200004024038
:101044004802002000080240400200207C000020EA
:101054006002002000B583B0002100910C4B5A6C53
:1010640042F480425A645A6C02F480420092009A1C
:1010740001911A6C42F080521A641B6C03F0805385
:101084000193019B072001F007F803B05DF804FB0E
:1010940000380240FEE7FEE7FEE7FEE7FEE77047A2
:1010A4007047704708B501F0A1F808BD08B50248BB
:1010B40000F0C4FE08BD00BFA802002000B583B044
:1010C400064B1A1D0092064A06490748FFF7F6FE2A
:1010D400064801F0DCFB03B05DF804FB400200208D
:1010E4004802002050020020580200206002002024
:1010F40008B5024800F0A2FE08BD00BFC4000020ED
:10110400034AD2F8883043F47003C2F88830704739
:1011140000ED00E000B587B000230293039304932D
:101124000593009301931548154A0260B322426067
:1011340083603122C26003614361836101F0C8FCB2
:1011440098B94FF48053029302A90C4801F0F8FCBB
:1011540070B920230093002301936946074801F0E6
:101164006FFD40B907B05DF804FBFFF7CDFEE8E77B
:10117400FFF7CAFEEDE7FFF7C7FEF3E760020020C2
:101184000004014002680E4B9A4200D0704700B53B
:1011940083B00021019103F59A335A6C42F00202A4
:1011A4005A645B6C03F002030193019B0A462C20F2
:1011B40000F084FF2C2000F0B5FF03B05DF804FBC1
:1011C4000004014008B50A480A4B03604FF4E133B8
:1011D400436000238360C36003610C224261836126
:1011E400C36101F03FFE00B908BDFFF78DFEFBE7C8
:1011F400080300200044004030B589B00023039365
:1012040004930593069307930268224B9A4201D0F4
:1012140009B030BD04460025019503F5FA331A6C74
:1012240042F400321A641A6C02F400320192019AF8
:1012340002951A6B42F001021A631B6B03F001035F
:101244000293029B0C230393022304930323069328
:101254000723079303A9104800F0DAFB0F48104B4B
:1012640003604FF00063436040238360C5604FF424
:101274008063036145618561C5610562456200F073
:1012840041FD18B9054B63639C63C1E7FFF73CFE5E
:10129400F8E700BF0044004000000240A80200201C
:1012A400A0600240002800F09B8070B50446504BBB
:1012B4001B6803F00F038B4208D2CBB24C4A137065
:1012C400136803F00F038B4240F08C80236813F003
:1012D400020F17D013F0040F04D0464A936843F466
:1012E400E0539360236813F0080F04D0414A9368D5
:1012F40043F4604393603F4A936823F0F003A0688B
:10130400034393600D46236813F0010F32D06368E2
:10131400012B21D09A1E012A25D9364A126812F0CF
:10132400020F61D033498A6822F0030213438B60B1
:1013340000F068FF06462F4B9B6803F00C036268BD
:10134400B3EB820F16D000F05DFF801B41F28833AF
:101354009842F0D9032042E0264A126812F4003F72
:10136400E0D101203BE0234A126812F0007FD9D17A
:10137400012034E01E4B1B6803F00F03AB4207D976
:10138400EAB21B4B1A701B6803F00F03AB422DD15A
:10139400236813F0040F06D0164A936823F4E0532D
:1013A400E1680B439360236813F0080F07D0114AD8
:1013B400936823F46043216943EAC103936000F016
:1013C40047F80C4B9B68C3F303130B4AD35CD84018
:1013D4000A4B18600A4B186800F0C8FE002070BD64
:1013E400012070470120FAE70120F8E70120F6E721
:1013F400003C024000380240843000081C000020F9
:1014040024000020014B1868704700BF1C00002016
:1014140008B5FFF7F7FF044B9B68C3F38223034A25
:10142400D35CD84008BD00BF0038024094300008A7
:1014340008B5FFF7E7FF044B9B68C3F34233034A45
:10144400D35CD84008BD00BF003802409430000887
:1014540070B55C4B9B6803F00C03082B06D00C2B77
:101464005AD0042B00F0AC80574870BD554B5A68D5
:1014740002F03F025B6813F4800F2AD0514B586886
:10148400C0F388100546002643011B1A66EB0604C8
:10149400A10141EA93619801C01A61EB0401CB00F8
:1014A40043EA5073C4001946601946EB01014B022C
:1014B40043EAD0534402204619463346FEF738FF28
:1014C400404B5B68C3F3014301335B00B0FBF3F0B3
:1014D400CBE73C4B5868C0F388100546002643010F
:1014E4001B1A66EB0604A10141EA93619801C01A34
:1014F40061EB0401CB0043EA5073C4001946601940
:1015040046EB01018B0243EA9053840220461946BC
:101514003346FEF70DFFD3E72A4B5A6802F03F0229
:101524005B6813F4800F28D0264B5868C0F38810EA
:101534000546002643011B1A66EB0604A10141EA95
:1015440093619801C01A61EB0401CB0043EA507324
:10155400C4001946601946EB01014B0243EAD0531B
:101564004402204619463346FEF7E2FE154B5B68FB
:10157400C3F30273B0FBF3F077E7124B5868C0F380
:1015840088100546002643011B1A66EB0604A101D8
:1015940041EA93619801C01A61EB0401CB0043EA6C
:1015A4005073C4001946601946EB01018B0243EAEB
:1015B40090538402204619463346FEF7B9FED5E718
:1015C400024852E7003802400024F40000127A0076
:1015D400002800F0018270B582B00446036813F05D
:1015E400010F41D0A54B9B6803F00C03042B32D0B0
:1015F400A24B9B6803F00C03082B27D09F4B9B68DE
:1016040003F00C030C2B59D06368B3F5803F5BD017
:10161400B3F5A02F5ED0994B1A6822F480321A6079
:101624001A6822F480221A606368002B5CD000F0F0
:10163400E9FD0546914B1B6813F4003F14D100F0FB
:10164400E1FD401B6428F5D90320CCE18B4B5B689A
:1016540013F4800FD2D0894B1B6813F4003F03D0DE
:101664006368002B00F0BA81236813F0020F60D086
:10167400824B9B6813F00C0F4AD0804B9B6803F09D
:101684000C03082B3FD07D4B9B6803F00C030C2B01
:1016940068D0E368002B74D0794B01221A6000F003
:1016A400B1FD0546754B1B6813F0020F60D100F0C5
:1016B400A9FD401B0228F5D9032094E16F4B5B6818
:1016C40013F4800FA0D0C6E76C4A136843F4803348
:1016D4001360A9E7694B1A6842F480221A601A68F9
:1016E40042F480321A609FE700F08CFD0546634B9C
:1016F4001B6813F4003FB7D000F084FD401B64283E
:10170400F5D903206FE15D4B5B6813F4800FBAD108
:101714005A4B1B6813F0020F03D0E368012B40F00F
:101724005F81564A136823F0F803216943EAC10331
:101734001360236813F0080F47D06369002B32D07D
:10174400504B01221A6000F05DFD05464B4B5B6F68
:1017540013F0020F39D100F055FD401B0228F5D9D2
:10176400032040E1454B5B6813F4800F91D1CFE730
:10177400424A136823F0F803216943EAC103136062
:10178400D7E73F4B00221A6000F03CFD05463B4B77
:101794001B6813F0020FCCD000F034FD401B02286C
:1017A400F5D903201FE1374B00221A6000F02AFD0F
:1017B4000546324B5B6F13F0020F06D000F022FD9A
:1017C400401B0228F5D903200DE1236813F0040F10
:1017D40078D02A4B1B6C13F0805F33D10023019324
:1017E400264B1A6C42F080521A641B6C03F080532F
:1017F4000193019B0125244B1B6813F4807F23D0A4
:10180400A368012B34D0052B40D01C4B1A6F22F057
:1018140001021A671A6F22F004021A67A368002BE8
:101824003ED000F0EFFC0646144B1B6F13F0020F82
:1018340047D100F0E7FC801B41F288339842F3D98A
:101844000320D0E00025D6E70F4A136843F48073E1
:10185400136000F0D7FC06460B4B1B6813F4807F23
:10186400CED100F0CFFC801B0228F5D90320BAE0CA
:10187400024A136F43F001031367CFE700380240B5
:1018840000004742800E4742007000405E4B1A6FD2
:1018940042F004021A671A6F42F001021A67BDE7A8
:1018A40000F0B0FC0646584B1B6F13F0020F08D033
:1018B40000F0A8FC801B41F288339842F3D903203E
:1018C40091E0EDB9A369002B00F08C804E4A926838
:1018D40002F00C02082A54D0022B17D04B4B0022E2
:1018E4001A6000F08FFC0446474B1B6813F0007F1E
:1018F40045D000F087FC001B0228F5D9032072E0D4
:10190400414A136C23F080531364DBE73F4B0022FE
:101914001A6000F077FC05463B4B1B6813F0007F10
:1019240006D000F06FFC401B0228F5D903205AE0D2
:10193400E369226A1343626A43EA8213A26A520881
:10194400013A43EA0243E26A43EA0263226B43EA4E
:1019540002732D4A53602D4B01221A6000F052FC91
:101964000446294B1B6813F0007F06D100F04AFCA3
:10197400001B0228F5D9032035E0002033E00020C5
:1019840031E0012B31D0204B5B6803F48001E26924
:1019940091422CD103F03F02216A8A4229D1616A23
:1019A40047F6C0721A40B2EB811F24D103F44031D0
:1019B400A26A5208013AB1EB024F1ED103F07062E1
:1019C400E16AB2EB016F1AD103F0E043226BB3EB8F
:1019D400027F16D1002006E001207047012002E0BA
:1019E400012000E0002002B070BD0120FBE70120CF
:1019F400F9E70120F7E70120F5E70120F3E70120EB
:101A0400F1E70120EFE700BF0038024060004742E1
:101A140000230F2B00F2D680F0B482B05DE086681C
:101A24005F000324BC4026EA0406CC68BC4034436F
:101A34008460466826EA02064C68C4F300129A40A1
:101A44003243426056E0DC08083450F8247003F056
:101A5400070296000F22B24027EA02070A69B24041
:101A64003A4340F8242059E0062200E00022B24024
:101A74003A430234544E46F82420544A9468EA43C4
:101A840002EA04064F6817F4801F01D045EA0406F1
:101A94004E4CA660E46802EA04064F6817F4001F7F
:101AA40001D045EA0406494CE660646802EA04068B
:101AB4004F6817F4003F01D045EA0406434C6660C2
:101AC400246822404E6816F4803F01D045EA04029F
:101AD4003E4C226001330F2B71D801229A400C68CE
:101AE40004EA0205AA42F5D14C6804F00304013C5F
:101AF400012C94D94A6802F00302032A09D0C4686D
:101B04005E000322B24024EA02048A68B2402243FF
:101B1400C2604A6802F00302022A94D004685E009C
:101B24000322B24024EA02044A6802F00302B240EB
:101B3400224302604A6812F4403FCBD00022019253
:101B4400234A546C44F480445464526C02F480423A
:101B54000192019A9C08A61C1B4A52F8267003F0B5
:101B6400030296000F22B24027EA0207194A904264
:101B74003FF47CAF02F58062904216D002F5806299
:101B8400904214D002F58062904212D002F5806235
:101B9400904210D002F5806290420ED002F580622D
:101BA40090423FF461AF072261E701225FE702221E
:101BB4005DE703225BE7042259E7052257E702B0F9
:101BC400F0BC7047704700BF00380140003C014042
:101BD40000380240000002400369194201D001208C
:101BE4007047002070470AB1816170470904816120
:101BF4007047436901EA030221EA030141EA024111
:101C04008161704730B405682C6824F480242C600A
:101C1400046863608368402B05D003689960036897
:101C2400DA6030BC704703689A600368D960F8E7EB
:101C340010B40368D9B210390C4AA2FB014212094C
:101C44000B4CA25CC2655F2909D923F47F7323F08E
:101C5400030304338365806D5DF8044B704723F4FC
:101C64007F7323F003038365F5E700BFABAAAAAA39
:101C74009C300008836A826992B9012B0AD01BB197
:101C8400022B01D000207047C36A13F0807F28D153
:101C940000207047C36AB3F1C07F24D0002070478E
:101CA400B2F5005F09D0022B25D9032B25D1C36AD5
:101CB40013F0807F23D100207047032B03D8DFE883
:101CC40003F01404140A00207047C36A13F0807FE1
:101CD4000DD100207047C36AB3F1C07F09D0002042
:101CE4007047012070470120704701207047012090
:101CF4007047012070470120704700207047012081
:101D04007047000070B5044600F07CFA002C5BD0EC
:101D14000546022384F83530002384F834302268E1
:101D2400136823F00103136023681A6812F0010F8B
:101D34000AD000F067FA401B0528F5D92023636513
:101D4400032084F8350070BD1A682048104061688B
:101D5400A2680A43E1680A4321690A4361690A43A4
:101D6400A1690A43E1690A43216A0A430243616A99
:101D740004291ED01A602668756925F00705636A70
:101D84001D43042B07D1A36A1D43E36A1BB12046FC
:101D9400FFF770FF90B975612046FFF749FFE26DC8
:101DA4003F239340836000206065012384F835302D
:101DB400C9E7E16A206B01430A43DBE7402363651B
:101DC400012084F83500BEE70120BCE73F8010F015
:101DD40038B5856D90F83440012C2CD0012480F85E
:101DE400344090F83540E4B2012C04D0002380F84C
:101DF4003430022038BD0446022084F83500002027
:101E040060652046FFF7FEFEE26D3F239340AB6022
:101E14002268136843F016031360236C23B122680D
:101E2400136843F0080313602268136843F0010346
:101E340013600020DEE70220DCE70000F0B583B089
:101E4400044600230193724B1D68724BA3FB0535B6
:101E5400AD0A876D3E68C26D08239340334210D0AB
:101E640003681A6812F0040F0BD01A6822F00402F7
:101E74001A60C26D08239340BB60436D43F00103B5
:101E84004365E26D01239340334209D022685269CD
:101E940012F0800F04D0BB60636D43F002036365EE
:101EA400E26D04239340334209D02268126812F091
:101EB400020F04D0BB60636D43F004036365E26DFD
:101EC40010239340334224D02268126812F0080F82
:101ED4001FD0BB6023681A6812F4802F0DD01B68D2
:101EE40013F4002F04D1236C9BB12046984710E0D3
:101EF400A36C73B1204698470BE01A6812F4807FF4
:101F040003D11A6822F008021A60236C0BB1204630
:101F14009847E26D20239340334255D022681268DB
:101F240012F0100F50D0BB6094F83530DBB2052BA3
:101F34000ED023681A6812F4802F33D01B6813F470
:101F4400002F2AD1636C002B3ED0204698473BE0FB
:101F54002268136823F0160313602268536923F080
:101F640080035361236CA3B12268136823F0080330
:101F74001360E26D3F239340BB60012384F8353046
:101F8400002384F83430236D002B3FD0204698473B
:101F94003CE0A36C002BE7D1EBE7E36BA3B1204655
:101FA400984711E01A6812F4807F09D11A6822F068
:101FB40010021A60012384F83530002384F8343089
:101FC400E36B0BB120469847636DFBB1636D13F06F
:101FD400010F17D0052384F835302268136823F0E5
:101FE40001031360019B01330193AB4204D82368BE
:101FF4001B6813F0010FF5D1012384F83530002359
:1020040084F83430E36C0BB12046984703B0F0BD3C
:102014001C000020B5814E1B10B582B00023019333
:10202400194B1A6C42F080521A641B6C03F08053F3
:102034000193019B154B01221A6000F0E3F804465A
:10204400134B5B6813F4803F08D100F0DBF8001BEE
:10205400B0F57A7FF4D9032002B010BD0D4B0122F4
:102064001A6000F0CFF80446094B5B6813F4003F94
:1020740007D100F0C7F8001BB0F57A7FF4D903202C
:10208400EAE70020E8E700BF0038024040000E42C3
:102094000070004044000E42074AD36823F4E06312
:1020A4001B041B0C000200F4E060184340F0BF6006
:1020B40040F40030D060704700ED00E030B4174BBE
:1020C400DB68C3F30223C3F10704042C28BF0424F0
:1020D4001D1D062D01D9033B00E000234FF0FF3501
:1020E40005FA04F421EA0401994005FA03F322EA0B
:1020F40003031943002809DB0901C9B200F1604058
:1021040000F5614080F8001330BC704700F00F0008
:102114000901C9B2024B1954F6E700BF00ED00E013
:1021240014ED00E0002807DB00F01F024009012342
:102134009340024A42F82030704700BF00E100E0BB
:102144000138B0F1807F0AD2064B5860064AF0216C
:1021540082F823100020986007221A60704701203B
:10216400704700BF10E000E000ED00E010B5044649
:102174000E4B18784FF47A73B3FBF0F30C4A1068E3
:10218400B0FBF3F0FFF7DCFF68B90F2C01D9012095
:102194000AE0002221464FF0FF30FFF78FFF054B86
:1021A4001C60002000E0012010BD00BF20000020C2
:1021B4001C0000202400002008B50B4B1A6842F4D0
:1021C40000721A601A6842F480621A601A6842F453
:1021D40080721A600320FFF75FFF0020FFF7C6FF3D
:1021E400FEF738FF002008BD003C0240034A116896
:1021F400034B1B780B441360704700BF4C03002053
:1022040020000020014B1868704700BF4C030020D9
:1022140038B50446FFF7F6FF0546B4F1FF3F02D098
:10222400044B1B781C44FFF7EDFF401BA042FAD37C
:1022340038BD00BF200000204A4B5A6822F44032C7
:102244005A605A6841680A435A600268536823F422
:102254008073536002685368016943EA0123536041
:102264000268536823F040735360026853688168BE
:102274000B4353600268936823F40063936002681D
:102284009368C1680B439360826A374B9A4257D074
:102294000268936823F07063936002689368816AAC
:1022A4000B4393600268936823F040539360026881
:1022B4009368C16A0B4393600268936823F0020336
:1022C400936002689368017E43EA4103936090F847
:1022D4002030002B3FD00268536843F400635360FE
:1022E4000268536823F46043536001684B68426A90
:1022F400013A43EA42334B600268D36A23F4700321
:10230400D3620168CB6AC269013A43EA0253CB62E1
:102314000268936823F4007393600268936890F8EA
:10232400301043EA412393600268936823F4806386
:10233400936002689368416943EA8123936070471C
:102344000268936823F0706393600268936823F0D3
:1023540040539360B0E70268536823F4006353600A
:10236400CAE700BF002301400100000F38B310B5D5
:102374000446036C43B1236C13F0100F0BD00120FF
:10238400002384F83C3010BDFEF79AF900236364FF
:1023940084F83C30EFE7236C23F4885323F00203E2
:1023A40043F0020323642046FFF746FF00206064E5
:1023B400236C23F0030343F001032364E0E70120CB
:1023C4007047000030B583B00023019390F83C308F
:1023D400012B00F0AE80012380F83C3003689C6838
:1023E40014F0010F12D19C6844F001049C60544B1A
:1023F4001C68544BA3FB0434A40C04EB4404019464
:10240400019C1CB1019C013C0194F9E70468A36898
:1024140013F4807F03D0A36823F48073A36003685C
:102424009C6814F0010F79D0046C24F4E06424F067
:10243400010444F4807404645B6813F4806F05D071
:10244400036C23F4405343F480530364036C13F488
:10245400805F38D0436C23F006034364134604467C
:10246400002280F83C20826B3748D063A26B374847
:102474001064A26B3648D06422686FF022001060AA
:102484002568686840F0806068602568A86840F442
:102494008070A86020680A4600F14C01A06BFFF729
:1024A40097FC2C4B5B6813F01F0F27D123682A4A33
:1024B400934211D002F58072934207D0274A934287
:1024C40014D0002033E000234364C7E702F5007210
:1024D400526812F01F0FF1D19A6812F0405F2AD1AE
:1024E4009A6842F080429A60002020E002F58072EF
:1024F400526812F0100FEFD0002018E02368164A3B
:10250400934201D0002012E09A6812F0405F14D187
:102514009A6842F080429A60002008E0036C43F01D
:1025240010030364436C43F001034364002003B0CD
:1025340030BD0220FBE70020F9E70020F7E700BFE9
:102544001C00002083DE1B438B250008692500083E
:1025540075250008002301400020014000220140AD
:102564007047704708B5806BFFF7FBFF08BD7047E5
:1025740008B5806B40230364436C43F00403436455
:10258400FFF7F5FF08BD08B5836B1A6C12F0500F06
:1025940026D11A6C42F400721A641A68916811F018
:1025A400405F19D1197EB9B9D16A11F4700F03D003
:1025B400916811F4806F0FD1516821F020015160AE
:1025C4001A6C22F480721A641A6C12F4805F03D1BC
:1025D4001A6C42F001021A641846FFF7C1FF08BDE5
:1025E4001A6C12F0100F03D19B6BDB6C9847F6E763
:1025F4001846FFF7BCFFF2E730B482B00023019322
:1026040090F83C30012B00F0BC80012380F83C3072
:102614000B68092B3ED90568EA689BB203EB4303B8
:102624001E3B072404FA03F322EA0303EB60056864
:10263400EA688C680B8803EB43031E3B04FA03F33C
:102644001343EB604B68062B3AD805686A6B03EBBF
:102654008303053B1F2404FA03F322EA03036B6399
:1026640005686A6B4B6803EB8303053B0C8804FA2B
:1026740003F313436B630268434B9A4250D00268DE
:10268400414B9A4259D0002380F83C30184602B09E
:1026940030BC704705682A699BB203EB43030724E7
:1026A40004FA03F322EA03032B6105682A698C68A0
:1026B4000B8803EB430304FA03F313432B61C1E7D1
:1026C4000C2B16D805682A6B03EB8303233B1F24CA
:1026D40004FA03F322EA03032B6305682A6B4B68AD
:1026E40003EB8303233B0C8804FA03F313432B63A8
:1026F400C1E70568EA6A03EB8303413B1F2404FA3C
:1027040003F322EA0303EB620568EA6A4B6803EB0E
:102714008303413B0C8804FA03F31343EB62AAE7F7
:102724000B68122BABD1194B5A6822F400025A6081
:102734005A6842F480025A60A1E70B68144A934233
:1027440001D0112B9FD1114B5A6822F480025A6098
:102754005A6842F400025A600A680D4B9A4292D1B8
:102764000C4B1B680C4AA2FB03239B0C03EB830357
:102774005A000192019B002B85D0019B013B0193E0
:10278400F8E7022083E700BF002001400023014056
:10279400120000101C00002083DE1B4310B4036AE7
:1027A400046A24F001040462846924F0F00444EA15
:1027B400021223F00A030B43826103625DF8044BA7
:1027C400704710B4036A23F0100303628469036A38
:1027D40024F4704444EA023223F0A00343EA0113D0
:1027E400826103625DF8044B7047836823F07003D1
:1027F400194341F0070181607047000090F83D30B3
:10280400DBB2012B37D1022380F83D300268D36854
:1028140043F00103D3600368194A934220D0B3F113
:10282400804F1DD0A2F57C42934219D002F58062FC
:10283400934215D002F58062934211D002F578429A
:1028440093420DD002F57052934209D0A2F594320E
:10285400934205D01A6842F001021A6000207047C2
:102864009A6802F00702062A07D01A6842F00102A9
:102874001A6000207047012070470020704700BF95
:10288400000001407047704770477047704710B5AB
:10289400044603681A6912F0020F11D0DA6812F0C4
:1028A400020F0DD06FF002021A610123037703684F
:1028B4009B6913F0030F70D0FFF7E6FF0023237723
:1028C40023681A6912F0040F12D0DA6812F0040FA8
:1028D4000ED06FF004021A610223237723689B69E8
:1028E40013F4407F5FD02046FFF7CEFF0023237709
:1028F40023681A6912F0080F12D0DA6812F0080F70
:102904000ED06FF008021A61042323772368DB6971
:1029140013F0030F4ED02046FFF7B6FF00232377B2
:1029240023681A6912F0100F12D0DA6812F0100F2F
:102934000ED06FF010021A61082323772368DB6935
:1029440013F4407F3DD02046FFF79EFF00232377FA
:1029540023681A6912F0010F03D0DA6812F0010F2C
:1029640036D123681A6912F0800F03D0DA6812F0A6
:10297400800F34D123681A6912F0400F03D0DA684B
:1029840012F0400F32D123681A6912F0200F03D0DD
:10299400DA6812F0200F30D110BDFFF774FF204623
:1029A400FFF773FF8AE72046FFF76DFF2046FFF726
:1029B4006CFF9BE72046FFF766FF2046FFF765FFA5
:1029C400ACE72046FFF75FFF2046FFF75EFFBDE759
:1029D4006FF001021A612046FFF754FFC1E76FF060
:1029E40080021A61204600F070F9C3E76FF04002DC
:1029F4001A612046FFF74AFFC5E76FF020021A610B
:102A0400204600F061F9C7E70368304A904212D0CB
:102A1400B0F1804F0FD0A2F57C4290420BD002F56A
:102A24008062904207D002F58062904203D002F5A2
:102A34007842904203D123F070034A681343234A37
:102A440090422AD0B0F1804F27D0A2F57C42904228
:102A540023D002F5806290421FD002F5806290423A
:102A64001BD002F57842904217D002F57052904282
:102A740013D002F5806290420FD002F5806290423A
:102A84000BD0A2F59832904207D002F580629042B2
:102A940003D002F58062904203D123F44073CA68E4
:102AA400134323F080034A69134303608B68C362B2
:102AB4000B688362054B984203D003F58063984208
:102AC40001D10B6903630123436170470000014096
:102AD40040B310B5044690F83D30F3B1022384F8B6
:102AE4003D30214651F8040BFFF78EFF012384F893
:102AF400463084F83E3084F83F3084F8403084F81F
:102B0400413084F8423084F8433084F8443084F807
:102B1400453084F83D30002010BD80F83C30FEF78D
:102B240031FBDBE70120704710B4846824F47F4450
:102B340042EA03230B43234383605DF8044B70474D
:102B440090F83C30012B79D010B50446012380F86D
:102B54003C30022380F83D300268936823F47F43BD
:102B640023F0770393600B68402B54D011D9702B5A
:102B740039D023D8502B43D0602B1DD1CA68496863
:102B84000068FFF71EFE60212068FFF72EFE00207C
:102B94000BE0102B4AD005D9202B47D0302B45D041
:102BA400012002E0002B41D00120012384F83D30B4
:102BB400002384F83C3010BD0120F6E7B3F5805FB4
:102BC4003AD0B3F5005F0CD1CB684A6889680068D5
:102BD400FFF7AAFF2268936843F4804393600020C0
:102BE400E3E70120E1E7CB684A6889680068FFF7FA
:102BF4009BFF2268936843F0770393600020D4E737
:102C0400CA6849680068FFF7C9FD50212068FFF7CA
:102C1400ECFD0020C9E7CA6849680068FFF7BEFDFB
:102C240040212068FFF7E1FD0020BEE71946206837
:102C3400FFF7DBFD0020B8E70020B6E7022070476D
:102C440090F83C30012B3BD030B4012380F83C3069
:102C5400022380F83D3003685C689D6824F07004AA
:102C64000A6822435A600368164A93421AD0B3F1A1
:102C7400804F17D0A2F57C42934213D002F58062B4
:102C840093420FD002F5806293420BD002F5784252
:102C9400934207D002F57052934203D0A2F59432C6
:102CA400934204D125F080054A6815439D600123B1
:102CB40080F83D30002380F83C30184630BC704723
:102CC400022070470000014070477047026802F11B
:102CD4000C0353E8003F23F0C0030C3242E80031F8
:102CE4000029F3D1202380F83D307047026802F1B7
:102CF4000C0353E8003F23F490730C3242E8003194
:102D04000029F3D1026802F1140353E8003F23F0D1
:102D14000103143242E800310029F3D1036B012B83
:102D240005D0202380F83E300023036370470268F7
:102D340002F10C0353E8003F23F010030C3242E885
:102D440000310029F3D1ECE770B504460268136939
:102D540023F44053C1680B4313618368026913432E
:102D640042691343C2691A430168CB6823F41643CA
:102D740023F00C031343CB600268536923F44073BC
:102D840081690B4353610368344A934206D002F5C8
:102D94008062934202D0FEF73BFB01E0FEF748FB62
:102DA400E369B3F5004F2AD00026051846EB060167
:102DB4002D1846EB0101CB0043EA5573EA00154692
:102DC400194663689A009B0F281846EB0101FDF72A
:102DD400AFFA234DA5FB00325109642303FB110311
:102DE4001B013233A5FB03235B0903F0F00202EB62
:102DF400011203F00F03216813448B6070BD002699
:102E0400051846EB06012D1846EB0101CB0043EAF9
:102E14005573EA001546194662683346921846EB24
:102E24000303281846EB0101FDF782FA0C4DA5FBBC
:102E340000325109642303FB1103DB003233A5FB89
:102E440003235B095A0002F4F87202EB011203F047
:102E54000703216813448B60D0E700BF00100140D2
:102E64001F85EB5158B310B5044690F83D300BB3B1
:102E7400242384F83D302268D36823F40053D360BC
:102E84002046FFF761FF2268136923F4904313611E
:102E94002268536923F02A0353612268D36843F4F8
:102EA4000053D36000202064202384F83D3084F84C
:102EB4003E3010BD80F83C30FEF79EF9D8E7012083
:102EC4007047000038B590F83D50EDB2202D38D150
:102ED400002938D0002A38D090F83C30012B36D065
:102EE40013460446012280F83C2001628384C38493
:102EF40000250564212280F83D20426B1548D063EB
:102F0400626B15481064626B1448D064626B15657B
:102F140022680432606BFEF75BFF23686FF04002A7
:102F24001A6084F83C50226802F1140353E8003F0D
:102F340043F08003143242E800310029F3D1002029
:102F440000E0022038BD0120FCE70120FAE702205E
:102F5400F8E700BF672F0008B52F0008C12F00084D
:102F6400704708B5816B03681B6813F4807F1AD11E
:102F74000023CB840A6802F1140353E8003F23F0D2
:102F84008003143242E800300028F3D10A6802F1C9
:102F94000C0353E8003F43F040030C3242E8003096
:102FA4000028F3D108BD0846FFF7DAFFFAE77047B7
:102FB40008B5806BFFF7FBFF08BD704710B5846B45
:102FC40023685A6994F83D30DBB2212B10D0236872
:102FD4005A6902F0400294F83E30DBB2222B11D041
:102FE400236C43F0100323642046FFF7E6FF10BD73
:102FF40002F08002002AEAD00023E3842046FFF78F
:1030040065FEE4E7002AEBD00023E3852046FFF7C2
:103014006DFEE5E7DFF834D00D480E490E4A002373
:1030240002E0D458C4500433C4188C42F9D30B4A78
:103034000B4C002301E013600432A242FBD3FEF7E1
:103044005FF8FDF701F9FDF7B9FF704700000220B2
:103054000000002028000020B430000828000020D0
:1030640050030020FEE70000F8B500BFF8BC08BC20
:103074009E467047F8B500BFF8BC08BC9E46704732
:103084000000000000000000010203040607080914
:1030940000000000010203040006101600061016CA
:0830A400C0D2FF7F0100000013
:0430AC002D020008E9
:0430B000050200080D
:1030B400FF0700007C010020E8010020240100201B
:1030C40050010020A8010020140200200024F40074
:0830D4000100000010000000E3
:0400000508003019A6
:00000001FF
