:020000040800F2
:1000000000000220413C0008ED1C0008EF1C000825
:10001000F11C0008F31C0008F51C0008000000009B
:10002000000000000000000000000000F71C0008B5
:10003000F91C000800000000FB1C0008FD1C000863
:10004000913C0008913C0008913C0008913C00085C
:10005000913C0008913C0008913C0008913C00084C
:10006000913C0008913C0008913C0008913C00083C
:10007000913C0008913C0008913C0008913C00082C
:10008000913C0008913C0008913C0008913C00081C
:10009000913C0008913C0008913C0008913C00080C
:1000A000913C0008913C0008913C0008913C0008FC
:1000B000913C0008913C0008913C0008913C0008EC
:1000C000913C0008913C0008913C0008913C0008DC
:1000D000913C0008913C0008913C0008913C0008CC
:1000E000913C0008913C0008913C0008913C0008BC
:1000F000091D0008913C0008913C0008913C000853
:10010000913C0008913C0008913C0008913C00089B
:10011000913C0008913C0008913C0008913C00088B
:10012000CD1D0008913C0008913C0008913C00085E
:10013000913C00080000000000000000913C000815
:10014000913C0008913C0008913C0008913C00085B
:10015000913C0008913C0008913C0008913C00084B
:10016000913C0008913C0008913C0008913C00083B
:10017000913C0008913C0008913C00080000000000
:1001800000000000913C000800000000000000009A
:10019000913C00080000000000000000913C0008B5
:1001A000000000000000000000000000913C00087A
:1001B000913C0008913C0008913C0008913C0008EB
:0401C000913C000866
:1001C8000348044B834202D0034B03B118477047DE
:1001D80024000020240000200000000005480649F3
:1001E800091A891001EBD171491002D0034B03B1F0
:1001F8001847704724000020240000200000000059
:1002080010B5064C237843B9FFF7DAFF044B13B156
:100218000448AFF300800123237010BD24000020A0
:1002280000000000943C000808B5044B1BB10449C9
:100238000448AFF30080BDE80840CFE700000000A5
:1002480028000020943C000870B50D4E0D4D761B1B
:10025800B61006D00024013455F8043B9847A6424E
:10026800F9D1094E094D761B03F010FDB61006D0E2
:100278000024013455F8043B9847A642F9D170BDD3
:10028800D43C0008D43C0008D83C0008D43C000802
:10029800F0B4860746D0541E002A3CD0CAB20346A2
:1002A80002E014F1FF3436D303F8012B9D07F8D18F
:1002B800032C29D9CDB245EA05250F2C45EA054579
:1002C80033D9A4F11006360903F1200707EB061706
:1002D80003F1100242E9045542E902551032BA42CC
:1002E800F8D1721C14F00C0F03EB021204F00F0685
:1002F80013D0331F23F003030433134442F8045B81
:100308009342FBD106F003042CB1C9B21C4403F894
:10031800011B9C42FBD1F0BC704734461346002CAD
:10032800F3D1F8E714460346C2E71A462646E0E743
:1003380081F0004102E000BF83F0004330B54FEA8E
:1003480041044FEA430594EA050F08BF90EA020FFB
:100358001FBF54EA000C55EA020C7FEA645C7FEA8E
:10036800655C00F0E2804FEA5454D4EB5555B8BFB1
:100378006D420CDD2C4480EA020281EA030382EA22
:10038800000083EA010180EA020281EA0303362DB4
:1003980088BF30BD11F0004F4FEA01314FF4801C87
:1003A8004CEA113102D0404261EB410113F0004F99
:1003B8004FEA03334CEA133302D0524263EB430350
:1003C80094EA050F00F0A780A4F10104D5F1200EEE
:1003D8000DDB02FA0EFC22FA05F2801841F1000149
:1003E80003FA0EF2801843FA05F359410EE0A5F11D
:1003F80020050EF1200E012A03FA0EFC28BF4CF04E
:10040800020C43FA05F3C01851EBE37101F0004503
:1004180007D54FF0000EDCF1000C7EEB00006EEB10
:100428000101B1F5801F1BD3B1F5001F0CD349089A
:100438005FEA30004FEA3C0C04F101044FEA4452F1
:1004480012F5800F80F09A80BCF1004F08BF5FEA78
:10045800500C50F1000041EB045141EA050130BD58
:100468005FEA4C0C404141EB010111F4801FA4F1FB
:100478000104E9D191F0000F04BF01460020B1FA50
:1004880081F308BF2033A3F10B03B3F120020CDA88
:100498000C3208DD02F1140CC2F10C0201FA0CF066
:1004A80021FA02F10CE002F11402D8BFC2F1200CCB
:1004B80001FA02F120FA0CFCDCBF41EA0C01904081
:1004C800E41AA2BF01EB0451294330BD6FEA0404CA
:1004D8001F3C1CDA0C340EDC04F11404C4F12002B5
:1004E80020FA04F001FA02F340EA030021FA04F3C7
:1004F80045EA030130BDC4F10C04C4F1200220FA1E
:1005080002F001FA04F340EA0300294630BD21FA5B
:1005180004F0294630BD94F0000F83F4801306BF21
:1005280081F480110134013D4EE77FEA645C18BF15
:100538007FEA655C29D094EA050F08BF90EA020FAC
:1005480005D054EA000C04BF1946104630BD91EAA4
:10055800030F1EBF0021002030BD5FEA545C05D1A7
:100568004000494128BF41F0004130BD14F58004E6
:100578003CBF01F5801130BD01F0004545F0FE415A
:1005880041F470014FF0000030BD7FEA645C1ABF8F
:10059800194610467FEA655C1CBF0B46024650EAC6
:1005A800013406BF52EA033591EA030F41F40021F2
:1005B80030BD00BF90F0000F04BF0021704730B578
:1005C8004FF4806404F132044FF000054FF000014D
:1005D80050E700BF90F0000F04BF0021704730B50E
:1005E8004FF4806404F1320410F0004548BF4042E3
:1005F8004FF000013EE700BF42004FEAE2014FEA38
:1006080031014FEA02701FBF12F07F4393F07F4F12
:1006180081F06051704732F07F4208BF704793F015
:100628007F4F04BF41F40021704730B54FF4607428
:1006380001F0004521F000411CE700BF50EA01022B
:1006480008BF704730B54FF000050AE050EA0102D4
:1006580008BF704730B511F0004502D5404261EB44
:1006680041014FF4806404F132045FEA915C3FF485
:10067800D8AE4FF003025FEADC0C18BF03325FEA22
:10068800DC0C18BF033202EBDC02C2F1200300FAD3
:1006980003FC20FA02F001FA03FE40EA0E0021FAF8
:1006A80002F11444BDE600BF70B54FF0FF0C4CF4E6
:1006B800E06C1CEA11541DBF1CEA135594EA0C0F98
:1006C80095EA0C0F00F0DEF82C4481EA030621EAD3
:1006D8004C5123EA4C5350EA013518BF52EA03350E
:1006E80041F4801143F4801338D0A0FB02CE4FF0C0
:1006F8000005E1FB02E506F00042E0FB03E54FF0F0
:100708000006E1FB03569CF0000F18BF4EF0010EE7
:10071800A4F1FF04B6F5007F64F5407404D25FEAE3
:100728004E0E6D4146EB060642EAC62141EA555196
:100738004FEAC52040EA5E504FEACE2EB4F1FD0CD8
:1007480088BFBCF5E06F1ED8BEF1004F08BF5FEA56
:10075800500E50F1000041EB045170BD06F0004608
:1007680046EA010140EA020081EA0301B4EB5C04B5
:10077800C2BFD4EB0C0541EA045170BD41F48011AD
:100788004FF0000E013C00F3AB8014F1360FDEBFD2
:10079800002001F0004170BDC4F10004203C35DAAE
:1007A8000C341BDC04F11404C4F1200500FA05F331
:1007B80020FA04F001FA05F240EA020001F00042D2
:1007C80021F0004110EBD37021FA04F642EB060148
:1007D8005EEA430E08BF20EAD37070BDC4F10C0472
:1007E800C4F1200500FA04F320FA05F001FA04F236
:1007F80040EA020001F0004110EBD37041F1000122
:100808005EEA430E08BF20EAD37070BDC4F120052C
:1008180000FA05F24EEA020E20FA04F301FA05F294
:1008280043EA020321FA04F001F0004121FA04F23C
:1008380020EA020000EBD3705EEA430E08BF20EA0C
:10084800D37070BD94F0000F0FD101F00046400046
:1008580041EB010111F4801F08BF013CF7D041EAC8
:10086800060195F0000F18BF704703F000465200CC
:1008780043EB030313F4801F08BF013DF7D043EA9D
:100888000603704794EA0C0F0CEA135518BF95EA53
:100898000C0F0CD050EA410618BF52EA4306D1D1DA
:1008A80081EA030101F000414FF0000070BD50EAF9
:1008B800410606BF1046194652EA430619D094EA83
:1008C8000C0F02D150EA013613D195EA0C0F05D16D
:1008D80052EA03361CBF104619460AD181EA0301C1
:1008E80001F0004141F0FE4141F470014FF0000079
:1008F80070BD41F0FE4141F4780170BD70B54FF014
:10090800FF0C4CF4E06C1CEA11541DBF1CEA135593
:1009180094EA0C0F95EA0C0F00F0A7F8A4EB050475
:1009280081EA030E52EA03354FEA013100F088806C
:100938004FEA03334FF0805545EA131343EA126335
:100948004FEA022245EA111545EA10654FEA0026EA
:100958000EF000419D4208BF964244F1FD0404F5A3
:10096800407402D25B084FEA3202B61A65EB0305FF
:100978005B084FEA32024FF480104FF4002CB6EBBC
:10098800020E75EB030E22BFB61A754640EA0C003C
:100998005B084FEA3202B6EB020E75EB030E22BF7C
:1009A800B61A754640EA5C005B084FEA3202B6EBBD
:1009B800020E75EB030E22BFB61A754640EA9C007C
:1009C8005B084FEA3202B6EB020E75EB030E22BF4C
:1009D800B61A754640EADC0055EA060E18D04FEA0A
:1009E800051545EA16754FEA06164FEAC30343EAAA
:1009F80052734FEAC2025FEA1C1CC0D111F4801F77
:100A08000BD141EA00014FF000004FF0004CB6E76F
:100A180011F4801F04BF01430020B4F1FD0C88BF0E
:100A2800BCF5E06F3FF6AFAEB5EB030C04BFB6EB19
:100A3800020C5FEA500C50F1000041EB045170BD0C
:100A48000EF0004E4EEA113114EB5C04C2BFD4EB39
:100A58000C0541EA045170BD41F480114FF0000EBD
:100A6800013C90E645EA060E8DE60CEA135594EA39
:100A78000C0F08BF95EA0C0F3FF43BAF94EA0C0F3C
:100A88000AD150EA01347FF434AF95EA0C0F7FF4B1
:100A980025AF104619462CE795EA0C0F06D152EA05
:100AA80003353FF4FDAE1046194622E750EA4106E9
:100AB80018BF52EA43067FF4C5AE50EA41047FF4FA
:100AC8000DAF52EA43057FF4EBAE12E74FEA41025D
:100AD80012F5001215D211D56FF47873B3EB625288
:100AE80012D94FEAC12343F0004343EA505311F0AF
:100AF800004F23FA02F018BF404270474FF0000041
:100B0800704750EA013005D111F0004008BF6FF07E
:100B1800004070474FF00000704700BF4FEA4102A5
:100B2800B2F1E04324BFB3F5001CDCF1FE5C0DD943
:100B380001F0004C4FEAC0024CEA5070B2F1004F8D
:100B480040EB830008BF20F00100704711F0804F90
:100B580021D113F13872BCBF01F00040704741F455
:100B680080114FEA5252C2F11802C2F1200C10FA59
:100B78000CF320FA02F018BF40F001004FEAC1233D
:100B88004FEAD32303FA0CFC40EA0C0023FA02F3E1
:100B98004FEA4303CCE77FEA625307D150EA0133B7
:100BA8001EBF4FF0FE4040F44000704701F0004087
:100BB80040F0FE4040F40000704700BF53B94AB906
:100BC800002908BF00281CBF4FF0FF314FF0FF304D
:100BD80000F074B9ADF1080C6DE904CE00F006F828
:100BE800DDF804E0DDE9022304B070472DE9F047A1
:100BF800089E04468846002B40F085808A421546A8
:100C080048D9B2FA82F24AB1C2F1200701FA02F3D6
:100C180020FA07F7954047EA030894404FEA154E33
:100C2800230CB8FBFEF71FFA85FC0EFB178843EA76
:100C3800084307FB0CF1994209D9EB1807F1FF307B
:100C480080F0E380994240F2E080023F2B445B1A37
:100C5800A4B2B3FBFEF00EFB103344EA034400FBDE
:100C68000CFCA44509D92C1900F1FF3380F0CB8086
:100C7800A44540F2C88002382C4440EA0740A4EB5F
:100C88000C0400271EB1D4400023C6E900433946AE
:100C9800BDE8F087002A53D0B2FA82F2002A40F069
:100CA800B680491B4FEA154E1FFA85F80127B1FB9C
:100CB800FEFC230C0EFB1C1143EA014308FB0CF15C
:100CC800994207D9EB180CF1FF3002D2994200F291
:100CD800EC808446591AA3B2B1FBFEF00EFB101447
:100CE80043EA044408FB00F8A04507D92C1900F191
:100CF800FF3302D2A04500F2DC801846A4EB0804BA
:100D080040EA0C40BEE78B4208D9002E78D0002775
:100D1800C6E9000138463946BDE8F087B3FA83F7DB
:100D28007FB98B4202D3824200F2BD80841A61EB04
:100D3800030301209846002EA9D0C6E90048A6E77B
:100D4800FFDEC7F12005BB4022FA05FC4CEA030C84
:100D580001FA07F420FA05F821FA05F34FEA1C4EC8
:100D680048EA0404B3FBFEF9210C0EFB19331FFA01
:100D78008CF841EA034309FB08FA9A4502FA07F29C
:100D880000FA07F10BD91CEB030309F1FF3080F0DF
:100D980088809A4540F28580A9F102096344A3EB53
:100DA8000A03A4B2B3FBFEF00EFB103344EA03447B
:100DB80000FB08F8A04508D91CEB040400F1FF3338
:100DC8006BD2A04569D90238644440EA0940A4EBD3
:100DD8000804A0FB02894C45C6464B4654D351D063
:100DE800002E69D0B1EB0E0264EB030404FA05F59A
:100DF80022FA07F3FC401D43C6E90054002746E7E2
:100E08003746304643E7184637E707461FE7C2F13B
:100E1800200320FA03F7954001FA02F021FA03F3C0
:100E28004FEA154E3843010CB3FBFEF71FFA85F85D
:100E38000EFB173341EA034107FB08F38B4204FA20
:100E480002F407D9691807F1FF3C28D28B4226D94A
:100E5800023F2944CB1A81B2B3FBFEF00EFB1033DC
:100E680041EA034100FB08F38B4207D9691800F1F6
:100E7800FF3C10D28B420ED902382944C91A40EAE5
:100E8800074714E74145ABD2B8EB020E69EB0C02F9
:100E980001381346A4E76046F0E7184695E7674629
:100EA800D8E781467BE7384645E7ACF1020C2B448E
:100EB80010E702382C4421E73746E8E6704700BFC0
:100EC80000B585B0002300930193029303931D4856
:100ED8001D4A02604FF48032426083600122026141
:100EE800027680F820304FF08051C1624FF0606187
:100EF8008162C3600221C16180F83020436102F041
:100F080081F8A8B90023009301230193029369464D
:100F18000C4802F0BDF970B9012300930223019334
:100F28006946084802F0B4F940B905B05DF804FB19
:100F380000F030FEE6E700F02DFEEDE700F02AFEB7
:100F4800F3E700BF040200200020014030B589B05B
:100F5800002303930493059306930793026803F110
:100F6800804303F590339A4201D009B030BD04465E
:100F78000025019503F58C335A6C42F480725A644B
:100F88005A6C02F480720192019A02951A6B42F02F
:100F980001021A631B6B03F001030293029B0323F4
:100FA8000393049303A9104801F07EFB0F48104BEC
:100FB800036045608560C5604FF4806303614FF44A
:100FC800805343614FF4804383614FF48073C3615E
:100FD8000562456201F0E2FC18B9044BA3639C6307
:100FE800C3E700F0D7FDF8E7000002404C020020FC
:100FF8001064024000B583B000210191094B1A6BBF
:1010080042F480021A631B6B03F480030193019B73
:101018000A46382001F09EFE382001F0CFFE03B0CA
:101028005DF804FB0038024070B588B000240394D2
:1010380004940594069407940094294B1A6B42F083
:1010480004021A631A6B02F004020092009A0194D7
:101058001A6B42F001021A631A6B02F00102019244
:10106800019A02941A6B42F002021A631B6B03F096
:1010780002030293029B1B4D22462021284601F0C1
:10108800FEFB4FF4005303934FF4041304930594A9
:10109800154E03A9304601F007FB0223039304947D
:1010A800059403A9304601F0FFFA10230393049432
:1010B800059403A9284601F0F7FA20230393012693
:1010C80004960594069403A9284601F0EDFA0396C0
:1010D8000494059403A9054801F0E6FA08B070BD28
:1010E80000380240000002400008024000040240AC
:1010F800014B01221A70704740000020034B1B78F7
:101108000BB9012070470020704700BF4000002045
:1011180008B54FF4DC720021FFF7BAF808BD0000EB
:10112800494B1A68494B9A4207D8F0B4D1F848613C
:10113800062E05D8002214460BE0072303707047DB
:1011480007230370F0BC7047012B0FD0022B10D07F
:101158000132022A10D8731E01EB0313134493F8CB
:101168005831002BF0D144F00104F1E744F00204B7
:10117800EEE744F00404EBE7072C08D006F114036B
:101188001B010022CA54022E5AD900224DE006F152
:1011980014031B010122CA54F5E701339E4243D9C7
:1011A80001EB021494F8585101EB031494F85841D8
:1011B800A542F2D101EB021494F8595101EB031442
:1011C80094F85941A542E8D101EB021494F85A5118
:1011D80001EB031494F85A41A542DED101EB021445
:1011E80094F85B5101EB031494F85B41A542D4D108
:1011F80001EB021494F85C5101EB031494F85C4180
:10120800A542CAD101EB021494F85D5101EB031415
:1012180094F85D41A542C0D10137012FBDD9C1F86D
:101228004C21062303708DE7013296428AD902F1D8
:1012380015031B01CB5C012BF6D1531C0027ADE72E
:10124800032303707EE700BFAC02002038900D0036
:1012580038B50446002304E0CA18202082F8B001FB
:101268000133072BF8D9002319E001EB02101844C9
:1012780090F85801012808D0022821D158000130DF
:101288000844432580F8B0511AE05800013008445A
:10129800422580F8B05113E0012A1ED00133022BF9
:1012A80021D8D1F84C2101EB0210184490F85801CC
:1012B8000028DAD1580001300844412580F8B0519F
:1012C80001EB02121A4492F85B21002AE4D101EBE7
:1012D8004302202082F8B001E0E701EB430221201D
:1012E80082F8B001DAE70A2381F8B6310D2381F8D4
:1012F800B731642308220349034802F02FFC002376
:10130800237038BDF40100200003002030B4039C92
:1013180004984D688D6025684D600D6B4D63D4ED64
:10132800007AF1EE677A90ED007A77EEC77AC1ED30
:101338000C7ACC6D0C660068C86591F88800C0B25C
:1013480081F88900D27981F8882091F8B020D2B24A
:1013580081F8B120DB7981F8B03091F8D830DBB270
:1013680081F8D930029BDB7981F8D83030BC7047DE
:10137800D1ED007A91ED017A67EE877AF5EEC07AC1
:10138800F1EE10FA00D970478B6A9342FBD2BBB9D1
:101398009A1C41F8220091ED007AD1ED017AB4EE61
:1013A800E77AF1EE10FA06DDCA18002082F820006C
:1013B80001338B627047CA18012082F82000F7E7D2
:1013C8005A1C51F82220821A0F2ADCDD9A1C41F897
:1013D800220091ED007AD1ED017AB4EEE77AF1EED0
:1013E80010FA06DDCA18002082F8200001338B624B
:1013F800C9E7CA18012082F82000F7E710B40C7872
:10140800E4B24B78DBB29C420CD04B6A934209D2CF
:1014180001EB830250600A783AB1CA1800201077AD
:1014280001334B625DF8044B7047CA1801201077EE
:10143800F6E70000F8B504460D462D4B1B682D4A0B
:101448001068C01A022817D8E36AAB4243D3A36DC9
:10145800AB4242D3D4F88430AB4240D3D4F8AC305A
:10146800AB423ED3D4F8D430AB423CD3D4F8FC30B2
:10147800AB423AD200202FE00622211DFFF778FF69
:101488001B4F3B681B4E3068062204F13001C01A1E
:10149800FFF76EFF3B683068062204F15C01C01A52
:1014A800FFF766FF3B683068062204F18801C01A1E
:1014B800FFF7A4FF3B683068062204F1B001C01AA8
:1014C800FFF79CFF3B683068062204F1D801C01A78
:1014D800FFF794FFB8E70020F8BD0020FCE70020E4
:1014E800FAE70020F8E70020F6E70120F4E700BF5C
:1014F80044000020AC02002030B400231A464C1EE1
:101508009C4239D9DC1C00EB840464689D1C00EB08
:1015180085056D68641B224403F10F0450F82440CC
:1015280003F10E0550F82550641B224403F12304EF
:1015380000EB8404646803F1220500EB85056D68FF
:10154800641B144403F12D0200EB8202526803F17C
:101558002C0500EB85056D68521B144403F1370216
:1015680000EB8202526803F1360500EB85056D68D1
:10157800521B22440133C2E7B2FBF4F3064AA2FB32
:1015880003239B08D0F848215B00153200EB0210BA
:10159800436030BC704700BFCDCCCCCC70B584B0B4
:1015A80005460E460A9C0294099C0194089C0094E6
:1015B800FFF7ACFE0D4B1B680D4A934206D80D4A47
:1015C80012680232934204D804B070BD07232B700E
:1015D800FAE706213046FFF72DFF0128F4D106214E
:1015E8003046FFF789FF04232B70EDE7AC0200209B
:1015F80038900D0044000020F8B52DED028B04460C
:10160800B0EE408A0D46D0F84831153300EB03138D
:101618005868FEF7CFFF0022204BFFF745F8FFF789
:101628007DFA07EE900A27EE880A30EE277ABCEE9C
:10163800C77A17EE107A77EEC07AFCEEE77A17EEE3
:10164800906A00236A1E9A421ED9581CDA1C04EBC1
:1016580082025268991C04EB81014968521A964229
:1016680016D8974216D303F1190204EB8202526886
:10167800183304EB83035B68D21A96420CD80346EE
:101688009742DFD2002000E00120BDEC028BF8BDBC
:101698000020FAE70020F8E70020F6E70000E03F26
:1016A80038B504460D46FFF727FF29469FED020A85
:1016B8002046FFF7A1FF38BDCDCCCC3D70B584B036
:1016C80005460E460A9C0294099C0194089C0094C5
:1016D800FFF71CFE144B1B68144A934206D8144AA1
:1016E80012680232934204D804B070BD07232B70ED
:1016F800FAE703213046FFF79DFE0128F4D10321C4
:101708003046FFF7CDFF012803D03046FFF700FD34
:10171800EAE73046FFF7FCFC034B1A68044B1A60F3
:1017280003232B70E0E700BFAC02002038900D00C7
:10173800440000200028B8BF404270470000000065
:101748002DE9F84304460025052D6DD8AB1C04EBA4
:1017580083035F6805F1220304EB8303D3F8049045
:10176800A7EB0900FFF7E6FFD4F800311844C4F8E6
:10177800000105F12C0304EB8303D3F80480A7EBE5
:101788000800FFF7D7FFD4F804311844C4F804015F
:1017980005F1360304EB83035E68B81BFFF7CAFF45
:1017A800D4F808311844C4F8080105F10E0354F8B8
:1017B8002370A7EB0900FFF7BDFFD4F80C311844DC
:1017C800C4F80C01A7EB0800FFF7B4FFD4F81031F8
:1017D8001844C4F81001B81BFFF7ACFFD4F8143153
:1017E8001844C4F8140105F1180304EB83035F6877
:1017F800A7EB0900FFF79EFFD4F818311844C4F886
:101808001801A7EB0800FFF795FFD4F81C3118441E
:10181800C4F81C01B81BFFF78DFFD4F82031184419
:10182800C4F8200101358FE7D4F8486106F11503A3
:1018380004EB03135D686808FEF7BCFE65A3D3E9F3
:101848000023FEF731FFFFF741F9AE46002200E022
:101858000132022A56D802F1400154F821505C4B5B
:1018680083FB05C7A7EBE57544F8215002F1420751
:1018780004EB8707796883FB018CACEBE171796035
:1018880002F1460754F827C083FB0C83A3EBEC73E3
:1018980044F8273085420FDD75450DDA02F1400C1A
:1018A80095FBF0F700FB175544F82C5002F148055A
:1018B80004EB850501276F60814210DD71450EDA62
:1018C80002F1420504EB850591FBF0F700FB1711C7
:1018D800696002F14B0104EB810101254D608342EF
:1018E800B6DD7345B4DA02F1460593FBF0F100FB6F
:1018F800113344F8253002F14E0304EB8303012130
:101908005960A5E70023FF2200E00133022B07D826
:1019180003F1400154F821109142F6DA0A46F4E73F
:10192800002300E00133022B0CD803F1400154F8E6
:1019380021109142F6D104EB06111944002081F8D8
:101948005801EFE70023FF2100E00133022B08D8FC
:1019580003F1420204EB820252688A42F5DA114628
:10196800F3E7002300E00133022B0DD803F1420214
:1019780004EB820252688A42F5D104EB06121A443B
:10198800012082F85801EEE70023FF2200E001332E
:10199800022B07D803F1460154F821109142F6DAD8
:1019A8000A46F4E7002300E00133022B0CD803F1C8
:1019B800460154F821109142F6D104EB061119445E
:1019C800022081F85801EFE7BDE8F883AFF3008003
:1019D800ABAAAA2A666666666666EE3F30B486B02B
:1019E800031D039300F13003049300F15C03059396
:1019F80000F18803009300F1B003019300F1D803CC
:101A08000293D0F8484100231CE001EB41021A443C
:101A1800483200EB8202526832B900EB04121144DA
:101A2800002281F85B210CE000EB04121144012232
:101A380081F85B2105E000EB04121144002281F8D3
:101A48005B210133022B23D800EB04121A4492F8CD
:101A5800581106AA02EB810252F80C2C92F8215078
:101A680006AA02EB830252F8182C527F9542CCD07A
:101A780001EB41021A44483200EB82025268002A04
:101A8800D9D100EB04121144012281F85B21D8E777
:101A980006B030BC7047000038B50C4B1A680C4BC8
:101AA8009A4202D90723037038BD0C4605460846FA
:101AB800FFF746FE2046FFF791FFD4F8483101337F
:101AC800C4F8483105232B70EEE700BFAC020020B4
:101AD80038900D0030B585B02B4C2478013C052C8E
:101AE8004ED8DFE804F00311202F3844274D002397
:101AF8002B60274C2046FFF70BFB234B02221A7062
:101B08002B68236005B030BD089C029401930092B5
:101B18000B4602461E491C48FFF7D0FD1B4A1368B6
:101B280001331360EEE7089C0294019300920B4680
:101B3800024617491448FFF731FD144A1368013368
:101B48001360DFE712491048FFF7A6FF0F4A136832
:101B580001331360D6E70D4C2368013323600C4929
:101B68000948FFF7DDFA236801332360CAE708490B
:101B78000548FFF76DFB054A136801331360C1E799
:101B8800014B00221A70BDE740000020AC02002083
:101B98004400002072B6FEE700B595B0342200215B
:101BA80007A8FEF775FB002302930393049305939C
:101BB80006930093224A116C41F080511164126C13
:101BC80002F080520092009A01931E4A116841F473
:101BD80040411160126802F440420192019A0222C7
:101BE800079201210A9110210B910D920E9308235F
:101BF8000F93B423109311921292139207A800F036
:101C080033FBB0B901F054F8A8B90F2302930223AB
:101C18000393002304934FF4A05305934FF4805388
:101C28000693052102A800F089F930B915B05DF8CE
:101C380004FBFFF7AFFFFFF7ADFFFFF7ABFF00BFF8
:101C4800003802400070004008B501F001F9FFF7C4
:101C5800A3FFFFF7E9F9FFF7CDF9FFF731F900F036
:101C68001BF900F0C1F802220A490B4801F0F6F905
:101C78000A4801F00FFCFFF73BFA06E0462001F0A6
:101C880013F92021064800F000FEFFF737FA002874
:101C9800FBD0F3E7B002002004020020B8020020C5
:101CA8000000024000B583B0002100910C4B5A6C33
:101CB80042F480425A645A6C02F480420092009ABC
:101CC80001911A6C42F080521A641B6C03F0805325
:101CD8000193019B072001F02BF803B05DF804FB8A
:101CE80000380240FEE7FEE7FEE7FEE7FEE7704742
:101CF8007047704708B501F0C5F808BD000000003E
:101D08002DE9F0412DED028B82B0274CA188206887
:101D180000F0AEFDE071254DA988286800F0A8FD07
:101D2800E871234EB188306800F0A2FDF071DFF849
:101D38009080D8F80000FEF74DFC19A3D3E90023E2
:101D4800FEF7FAFAFEF7EAFE1A4FB3EE048A07EE38
:101D5800900AC7EE887AC7ED007AD8F80400FEF733
:101D680039FC0FA3D3E90023FEF7E6FAFEF7D6FE07
:101D7800114B07EE900AC7EE887AC3ED007A0093FC
:101D88003B46324629462046FFF7A4FE0B4801F0A1
:101D9800CAFB02B0BDEC028BBDE8F081AFF3008056
:101DA8000000000000FE9F40000000200800002006
:101DB80010000020FC01002000020020B8020020D2
:101DC800B002002008B5024800F084FE08BD00BF3C
:101DD8004C020020034AD2F8883043F47003C2F85A
:101DE8008830704700ED00E000B587B0002302930B
:101DF800039304930593009301931548154A0260D1
:101E0800B322426083603122C2600361436183610F
:101E180001F0AAFC98B94FF48053029302A90C4828
:101E280001F0DAFC70B9202300930023019369467E
:101E3800074801F051FD40B907B05DF804FBFFF712
:101E4800A9FEE8E7FFF7A6FEEDE7FFF7A3FEF3E735
:101E5800B80200200004014002680E4B9A4200D0EC
:101E6800704700B583B00021019103F59A335A6C8D
:101E780042F002025A645B6C03F002030193019B77
:101E88000A462C2000F066FF2C2000F097FF03B0D4
:101E98005DF804FB0004014008B50A480A4B0360DA
:101EA8004FF4E133436000238360C36003610C2275
:101EB80042618361C36101F022FE00B908BDFFF7EA
:101EC80069FEFBE7000300200044004000B589B02C
:101ED8000023039304930593069307930268154B15
:101EE8009A4202D009B05DF804FB0021019103F584
:101EF800FA331A6C42F400321A641A6C02F4003293
:101F08000192019A02911A6B42F001021A631B6B4B
:101F180003F001030293029B0C230393022304930F
:101F2800032306930723079303A9034800F0BCFB88
:101F3800D8E700BF0044004000000240002800F03D
:101F48009B8070B50446504B1B6803F00F038B420F
:101F580008D2CBB24C4A1370136803F00F038B42BC
:101F680040F08C80236813F0020F17D013F0040F91
:101F780004D0464A936843F4E0539360236813F00F
:101F8800080F04D0414A936843F4604393603F4A82
:101F9800936823F0F003A068034393600D46236819
:101FA80013F0010F32D06368012B21D09A1E012A49
:101FB80025D9364A126812F0020F61D033498A686F
:101FC80022F0030213438B6000F068FF06462F4B94
:101FD8009B6803F00C036268B3EB820F16D000F025
:101FE8005DFF801B41F288339842F0D9032042E01C
:101FF800264A126812F4003FE0D101203BE0234A50
:10200800126812F0007FD9D1012034E01E4B1B6802
:1020180003F00F03AB4207D9EAB21B4B1A701B68D7
:1020280003F00F03AB422DD1236813F0040F06D041
:10203800164A936823F4E053E1680B4393602368DE
:1020480013F0080F07D0114A936823F460432169FD
:1020580043EAC103936000F047F80C4B9B68C3F355
:1020680003130B4AD35CD8400A4B18600A4B186814
:1020780000F0C8FE002070BD012070470120FAE77B
:102088000120F8E70120F6E7003C02400038024052
:10209800AC3C00081800002020000020014B186804
:1020A800704700BF1800002008B5FFF7F7FF044B82
:1020B8009B68C3F38223034AD35CD84008BD00BFA2
:1020C80000380240BC3C000808B5FFF7E7FF044BA6
:1020D8009B68C3F34233034AD35CD84008BD00BFB2
:1020E80000380240BC3C000870B55C4B9B6803F0AC
:1020F8000C03082B06D00C2B5AD0042B00F0AC8014
:10210800574870BD554B5A6802F03F025B6813F49C
:10211800800F2AD0514B5868C0F388100546002616
:1021280043011B1A66EB0604A10141EA9361980179
:10213800C01A61EB0401CB0043EA5073C40019468E
:10214800601946EB01014B0243EAD0534402204692
:1021580019463346FEF732FD404B5B68C3F3014333
:1021680001335B00B0FBF3F0CBE73C4B5868C0F39E
:1021780088100546002643011B1A66EB0604A101D8
:1021880041EA93619801C01A61EB0401CB0043EA6C
:102198005073C4001946601946EB01018B0243EAEB
:1021A80090538402204619463346FEF707FDD3E7CD
:1021B8002A4B5A6802F03F025B6813F4800F28D05C
:1021C800264B5868C0F388100546002643011B1AA1
:1021D80066EB0604A10141EA93619801C01A61EB1C
:1021E8000401CB0043EA5073C4001946601946EB5A
:1021F80001014B0243EAD0534402204619463346B4
:10220800FEF7DCFC154B5B68C3F30273B0FBF3F01D
:1022180077E7124B5868C0F388100546002643013B
:102228001B1A66EB0604A10141EA93619801C01AE2
:1022380061EB0401CB0043EA5073C40019466019EE
:1022480046EB01018B0243EA90538402204619466B
:102258003346FEF7B3FCD5E7024852E700380240A0
:102268000024F40000127A00002800F0018270B502
:1022780082B00446036813F0010F41D0A54B9B6858
:1022880003F00C03042B32D0A24B9B6803F00C0321
:10229800082B27D09F4B9B6803F00C030C2B59D0BD
:1022A8006368B3F5803F5BD0B3F5A02F5ED0994B40
:1022B8001A6822F480321A601A6822F480221A609E
:1022C8006368002B5CD000F0E9FD0546914B1B6864
:1022D80013F4003F14D100F0E1FD401B6428F5D948
:1022E8000320CCE18B4B5B6813F4800FD2D0894B71
:1022F8001B6813F4003F03D06368002B00F0BA8119
:10230800236813F0020F60D0824B9B6813F00C0F08
:102318004AD0804B9B6803F00C03082B3FD07D4BC1
:102328009B6803F00C030C2B68D0E368002B74D077
:10233800794B01221A6000F0B1FD0546754B1B6808
:1023480013F0020F60D100F0A9FD401B0228F5D957
:10235800032094E16F4B5B6813F4800FA0D0C6E7AD
:102368006C4A136843F480331360A9E7694B1A6811
:1023780042F480221A601A6842F480321A609FE799
:1023880000F08CFD0546634B1B6813F4003FB7D083
:1023980000F084FD401B6428F5D903206FE15D4BF4
:1023A8005B6813F4800FBAD15A4B1B6813F0020F05
:1023B80003D0E368012B40F05F81564A136823F08D
:1023C800F803216943EAC1031360236813F0080F77
:1023D80047D06369002B32D0504B01221A6000F0BD
:1023E8005DFD05464B4B5B6F13F0020F39D100F0D2
:1023F80055FD401B0228F5D9032040E1454B5B6899
:1024080013F4800F91D1CFE7424A136823F0F80301
:10241800216943EAC1031360D7E73F4B00221A60E2
:1024280000F03CFD05463B4B1B6813F0020FCCD077
:1024380000F034FD401B0228F5D903201FE1374B7B
:1024480000221A6000F02AFD0546324B5B6F13F03C
:10245800020F06D000F022FD401B0228F5D9032008
:102468000DE1236813F0040F78D02A4B1B6C13F08E
:10247800805F33D100230193264B1A6C42F08052BF
:102488001A641B6C03F080530193019B0125244BB4
:102498001B6813F4807F23D0A368012B34D0052B4D
:1024A80040D01C4B1A6F22F001021A671A6F22F0F3
:1024B80004021A67A368002B3ED000F0EFFC064622
:1024C800144B1B6F13F0020F47D100F0E7FC801B81
:1024D80041F288339842F3D90320D0E00025D6E7AB
:1024E8000F4A136843F48073136000F0D7FC064664
:1024F8000B4B1B6813F4807FCED100F0CFFC801B00
:102508000228F5D90320BAE0024A136F43F0010309
:102518001367CFE70038024000004742800E474269
:10252800007000405E4B1A6F42F004021A671A6F7F
:1025380042F001021A67BDE700F0B0FC0646584BAE
:102548001B6F13F0020F08D000F0A8FC801B41F2AB
:1025580088339842F3D9032091E0EDB9A369002BA1
:1025680000F08C804E4A926802F00C02082A54D07F
:10257800022B17D04B4B00221A6000F08FFC044648
:10258800474B1B6813F0007F45D000F087FC001B09
:102598000228F5D9032072E0414A136C23F08053D6
:1025A8001364DBE73F4B00221A6000F077FC054616
:1025B8003B4B1B6813F0007F06D000F06FFC401BFC
:1025C8000228F5D903205AE0E369226A1343626AB4
:1025D80043EA8213A26A5208013A43EA0243E26AD2
:1025E80043EA0263226B43EA02732D4A53602D4B80
:1025F80001221A6000F052FC0446294B1B6813F0B4
:10260800007F06D100F04AFC001B0228F5D9032000
:1026180035E0002033E0002031E0012B31D0204BA1
:102628005B6803F48001E26991422CD103F03F0218
:10263800216A8A4229D1616A47F6C0721A40B2EB10
:10264800811F24D103F44031A26A5208013AB1EB48
:10265800024F1ED103F07062E16AB2EB016F1AD12A
:1026680003F0E043226BB3EB027F16D1002006E0B3
:1026780001207047012002E0012000E0002002B0A4
:1026880070BD0120FBE70120F9E70120F7E70120F1
:10269800F5E70120F3E70120F1E70120EFE700BFAC
:1026A800003802406000474200230F2B00F2D6801A
:1026B800F0B482B05DE086685F000324BC4026EA7F
:1026C8000406CC68BC4034438460466826EA0206A7
:1026D8004C68C4F300129A403243426056E0DC086A
:1026E800083450F8247003F0070296000F22B24015
:1026F80027EA02070A69B2403A4340F8242059E021
:10270800062200E00022B2403A430234544E46F812
:102718002420544A9468EA4302EA04064F6817F4EE
:10272800801F01D045EA04064E4CA660E46802EA20
:1027380004064F6817F4001F01D045EA0406494C07
:10274800E660646802EA04064F6817F4003F01D0A7
:1027580045EA0406434C6660246822404E6816F435
:10276800803F01D045EA04023E4C226001330F2B22
:1027780071D801229A400C6804EA0205AA42F5D1F0
:102788004C6804F00304013C012C94D94A6802F017
:102798000302032A09D0C4685E000322B24024EA77
:1027A80002048A68B2402243C2604A6802F0030207
:1027B800022A94D004685E000322B24024EA02048C
:1027C8004A6802F00302B240224302604A6812F4E7
:1027D800403FCBD000220192234A546C44F48044F9
:1027E8005464526C02F480420192019A9C08A61C1F
:1027F8001B4A52F8267003F0030296000F22B240DB
:1028080027EA0207194A90423FF47CAF02F580623A
:10281800904216D002F58062904214D002F5806290
:10282800904212D002F58062904210D002F5806288
:1028380090420ED002F5806290423FF461AF0722C9
:1028480061E701225FE702225DE703225BE70422DA
:1028580059E7052257E702B0F0BC7047704700BF40
:1028680000380140003C01400038024000000240AE
:102878000369194201D001207047002070470AB14E
:1028880081617047090481617047436901EA030265
:1028980021EA030141EA02418161704730B40568C9
:1028A8002C6824F480242C60046863608368402BBF
:1028B80005D0036899600368DA6030BC7047036824
:1028C8009A600368D960F8E710B40368D9B2103980
:1028D8000C4AA2FB014212090B4CA25CC2655F299B
:1028E80009D923F47F7323F0030304338365806DD0
:1028F8005DF8044B704723F47F7323F0030383656B
:10290800F5E700BFABAAAAAAC43C0008836A82699B
:1029180092B9012B0AD01BB1022B01D000207047BD
:10292800C36A13F0807F28D100207047C36AB3F1CF
:10293800C07F24D000207047B2F5005F09D0022B79
:1029480025D9032B25D1C36A13F0807F23D100201A
:102958007047032B03D8DFE803F01404140A00209F
:102968007047C36A13F0807F0DD100207047C36A97
:10297800B3F1C07F09D000207047012070470120C3
:1029880070470120704701207047012070470120DF
:1029980070470020704701207047000070B504465A
:1029A80000F07CFA002C5BD00546022384F8353011
:1029B800002384F834302268136823F0010313607D
:1029C80023681A6812F0010F0AD000F067FA401B5A
:1029D8000528F5D920236365032084F8350070BDE8
:1029E8001A68204810406168A2680A43E1680A43EF
:1029F80021690A4361690A43A1690A43E1690A43F3
:102A0800216A0A430243616A04291ED01A602668B3
:102A1800756925F00705636A1D43042B07D1A36A6E
:102A28001D43E36A1BB12046FFF770FF90B975613B
:102A38002046FFF749FFE26D3F2393408360002063
:102A48006065012384F83530C9E7E16A206B0143EA
:102A58000A43DBE740236365012084F83500BEE7BD
:102A68000120BCE73F8010F038B5856D90F8344000
:102A7800012C2CD0012480F8344090F83540E4B281
:102A8800012C04D0002380F83430022038BD0446DD
:102A9800022084F83500002060652046FFF7FEFE1E
:102AA800E26D3F239340AB602268136843F016033E
:102AB8001360236C23B12268136843F00803136082
:102AC8002268136843F0010313600020DEE7022048
:102AD800DCE70000F0B583B0044600230193724B95
:102AE8001D68724BA3FB0535AD0A876D3E68C26D44
:102AF80008239340334210D003681A6812F0040F79
:102B08000BD01A6822F004021A60C26D08239340A1
:102B1800BB60436D43F001034365E26D01239340BD
:102B2800334209D02268526912F0800F04D0BB608A
:102B3800636D43F002036365E26D042393403342FF
:102B480009D02268126812F0020F04D0BB60636DCE
:102B580043F004036365E26D10239340334224D0AD
:102B68002268126812F0080F1FD0BB6023681A6829
:102B780012F4802F0DD01B6813F4002F04D1236C9E
:102B88009BB12046984710E0A36C73B12046984744
:102B98000BE01A6812F4807F03D11A6822F0080249
:102BA8001A60236C0BB120469847E26D20239340AE
:102BB800334255D02268126812F0100F50D0BB6013
:102BC80094F83530DBB2052B0ED023681A6812F45E
:102BD800802F33D01B6813F4002F2AD1636C002B8D
:102BE8003ED0204698473BE02268136823F016033E
:102BF80013602268536923F080035361236CA3B1E7
:102C08002268136823F008031360E26D3F239340A2
:102C1800BB60012384F83530002384F83430236DF9
:102C2800002B3FD0204698473CE0A36C002BE7D10F
:102C3800EBE7E36BA3B12046984711E01A6812F45A
:102C4800807F09D11A6822F010021A60012384F8E3
:102C58003530002384F83430E36B0BB120469847B5
:102C6800636DFBB1636D13F0010F17D0052384F872
:102C780035302268136823F001031360019B013388
:102C88000193AB4204D823681B6813F0010FF5D1F8
:102C9800012384F83530002384F83430E36C0BB119
:102CA8002046984703B0F0BD18000020B5814E1BA0
:102CB80010B582B000230193194B1A6C42F0805270
:102CC8001A641B6C03F080530193019B154B01227E
:102CD8001A6000F0E3F80446134B5B6813F4803F76
:102CE80008D100F0DBF8001BB0F57A7FF4D9032097
:102CF80002B010BD0D4B01221A6000F0CFF8044657
:102D0800094B5B6813F4003F07D100F0C7F8001BBC
:102D1800B0F57A7FF4D90320EAE70020E8E700BF9E
:102D28000038024040000E420070004044000E424D
:102D3800074AD36823F4E0631B041B0C000200F469
:102D4800E060184340F0BF6040F40030D060704746
:102D580000ED00E030B4174BDB68C3F30223C3F186
:102D68000704042C28BF04241D1D062D01D9033B8C
:102D780000E000234FF0FF3505FA04F421EA0401CE
:102D8800994005FA03F322EA03031943002809DBF3
:102D98000901C9B200F1604000F5614080F80013F4
:102DA80030BC704700F00F000901C9B2024B19543A
:102DB800F6E700BF00ED00E014ED00E0002807DBB7
:102DC80000F01F02400901239340024A42F82030D4
:102DD800704700BF00E100E00138B0F1807F0AD2FF
:102DE800064B5860064AF02182F8231000209860AC
:102DF80007221A6070470120704700BF10E000E00A
:102E080000ED00E010B504460E4B18784FF47A73C5
:102E1800B3FBF0F30C4A1068B0FBF3F0FFF7DCFFEC
:102E280068B90F2C01D901200AE0002221464FF091
:102E3800FF30FFF78FFF054B1C60002000E00120EA
:102E480010BD00BF1C00002018000020200000203A
:102E580008B50B4B1A6842F400721A601A6842F4FB
:102E680080621A601A6842F480721A600320FFF7C1
:102E78005FFF0020FFF7C6FFFEF714FF002008BD24
:102E8800003C0240034A1168034B1B780B44136053
:102E9800704700BF440300201C000020014B186845
:102EA800704700BF4403002038B50446FFF7F6FF1B
:102EB8000546B4F1FF3F02D0044B1B781C44FFF7D2
:102EC800EDFF401BA042FAD338BD00BF1C00002014
:102ED8004A4B5A6822F440325A605A6841680A4399
:102EE8005A600268536823F4807353600268536819
:102EF800016943EA012353600268536823F0407371
:102F080053600268536881680B4353600268936892
:102F180023F40063936002689368C1680B4393606D
:102F2800826A374B9A4257D00268936823F07063DD
:102F3800936002689368816A0B43936002689368A0
:102F480023F04053936002689368C16A0B4393600F
:102F58000268936823F00203936002689368017E15
:102F680043EA4103936090F82030002B3FD0026879
:102F7800536843F4006353600268536823F4604362
:102F8800536001684B68426A013A43EA42334B6036
:102F98000268D36A23F47003D3620168CB6AC269FA
:102FA800013A43EA0253CB620268936823F4007340
:102FB80093600268936890F8301043EA4123936065
:102FC8000268936823F48063936002689368416998
:102FD80043EA8123936070470268936823F0706323
:102FE80093600268936823F040539360B0E70268E7
:102FF800536823F400635360CAE700BF002301400D
:103008000100000F38B310B50446036C43B1236CBC
:1030180013F0100F0BD00120002384F83C3010BDB2
:10302800FDF794FF0023636484F83C30EFE7236CDA
:1030380023F4885323F0020343F002032364204659
:10304800FFF746FF00206064236C23F0030343F07E
:1030580001032364E0E701207047000030B583B026
:103068000023019390F83C30012B00F0AE8001233F
:1030780080F83C3003689C6814F0010F12D19C68FA
:1030880044F001049C60544B1C68544BA3FB04346B
:10309800A40C04EB44040194019C1CB1019C013C68
:1030A8000194F9E70468A36813F4807F03D0A36848
:1030B80023F48073A36003689C6814F0010F79D02F
:1030C800046C24F4E06424F0010444F4807404647F
:1030D8005B6813F4806F05D0036C23F4405343F40A
:1030E80080530364036C13F4805F38D0436C23F07F
:1030F8000603436413460446002280F83C20826B92
:103108003748D063A26B37481064A26B3648D06446
:1031180022686FF0220010602568686840F08060BF
:1031280068602568A86840F48070A86020680A462E
:1031380000F14C01A06BFFF797FC2C4B5B6813F078
:103148001F0F27D123682A4A934211D002F58072B3
:10315800934207D0274A934214D0002033E000233B
:103168004364C7E702F50072526812F01F0FF1D1ED
:103178009A6812F0405F2AD19A6842F080429A60B9
:10318800002020E002F58072526812F0100FEFD094
:10319800002018E02368164A934201D0002012E06C
:1031A8009A6812F0405F14D19A6842F080429A609F
:1031B800002008E0036C43F010030364436C43F001
:1031C80001034364002003B030BD0220FBE7002068
:1031D800F9E70020F7E700BF1800002083DE1B4353
:1031E8002732000805320008113200080023014088
:1031F80000200140002201407047704708B5806BED
:10320800FFF7FBFF08BD704708B5806B40230364D8
:10321800436C43F004034364FFF7F5FF08BD08B5AA
:10322800836B1A6C12F0500F26D11A6C42F400729C
:103238001A641A68916811F0405F19D1197EB9B9FA
:10324800D16A11F4700F03D0916811F4806F0FD117
:10325800516821F0200151601A6C22F480721A64BE
:103268001A6C12F4805F03D11A6C42F001021A64DE
:103278001846FFF7C1FF08BD1A6C12F0100F03D1F2
:103288009B6BDB6C9847F6E71846FFF7BCFFF2E745
:1032980030B482B00023019390F83C30012B00F049
:1032A800BC80012380F83C300B68092B3ED90568A7
:1032B800EA689BB203EB43031E3B072404FA03F3BB
:1032C80022EA0303EB600568EA688C680B8803EB65
:1032D80043031E3B04FA03F31343EB604B68062BCE
:1032E8003AD805686A6B03EB8303053B1F2404FA8D
:1032F80003F322EA03036B6305686A6B4B6803EB0D
:103308008303053B0C8804FA03F313436B630268D9
:10331800434B9A4250D00268414B9A4259D00023FD
:1033280080F83C30184602B030BC704705682A69FE
:103338009BB203EB4303072404FA03F322EA0303D3
:103348002B6105682A698C680B8803EB430304FA30
:1033580003F313432B61C1E70C2B16D805682A6BBE
:1033680003EB8303233B1F2404FA03F322EA03033A
:103378002B6305682A6B4B6803EB8303233B0C889C
:1033880004FA03F313432B63C1E70568EA6A03EB06
:103398008303413B1F2404FA03F322EA0303EB628D
:1033A8000568EA6A4B6803EB8303413B0C8804FA1F
:1033B80003F31343EB62AAE70B68122BABD1194B4B
:1033C8005A6822F400025A605A6842F480025A602D
:1033D800A1E70B68144A934201D0112B9FD1114BDE
:1033E8005A6822F480025A605A6842F400025A600D
:1033F8000A680D4B9A4292D10C4B1B680C4AA2FBEF
:1034080003239B0C03EB83035A000192019B002BBF
:1034180085D0019B013B0193F8E7022083E700BFB9
:103428000020014000230140120000101800002075
:1034380083DE1B4310B4036A046A24F001040462A7
:10344800846924F0F00444EA021223F00A030B43CF
:10345800826103625DF8044B704710B4036A23F07D
:10346800100303628469036A24F4704444EA023254
:1034780023F0A00343EA0113826103625DF8044B61
:103488007047836823F07003194341F00701816096
:103498007047000090F83D30DBB2012B37D1022392
:1034A80080F83D300268D36843F00103D3600368B5
:1034B800194A934220D0B3F1804F1DD0A2F57C4227
:1034C800934219D002F58062934215D002F58062CA
:1034D800934211D002F5784293420DD002F5705212
:1034E800934209D0A2F59432934205D01A6842F06B
:1034F80001021A60002070479A6802F00702062A43
:1035080007D01A6842F001021A60002070470120B3
:1035180070470020704700BF0000014070477047A7
:1035280070477047704710B5044603681A6912F06F
:10353800020F11D0DA6812F0020F0DD06FF00202FC
:103548001A610123037703689B6913F0030F70D096
:10355800FFF7E6FF0023237723681A6912F0040FA8
:1035680012D0DA6812F0040F0ED06FF004021A615C
:103578000223237723689B6913F4407F5FD020469A
:10358800FFF7CEFF0023237723681A6912F0080F8C
:1035980012D0DA6812F0080F0ED06FF008021A6124
:1035A800042323772368DB6913F0030F4ED02046EA
:1035B800FFF7B6FF0023237723681A6912F0100F6C
:1035C80012D0DA6812F0100F0ED06FF010021A61E4
:1035D800082323772368DB6913F4407F3DD0204616
:1035E800FFF79EFF0023237723681A6912F0010F63
:1035F80003D0DA6812F0010F36D123681A6912F085
:10360800800F03D0DA6812F0800F34D123681A696A
:1036180012F0400F03D0DA6812F0400F32D123685D
:103628001A6912F0200F03D0DA6812F0200F30D197
:1036380010BDFFF774FF2046FFF773FF8AE72046A7
:10364800FFF76DFF2046FFF76CFF9BE72046FFF76B
:1036580066FF2046FFF765FFACE72046FFF75FFFF0
:103668002046FFF75EFFBDE76FF001021A612046B2
:10367800FFF754FFC1E76FF080021A61204600F09F
:1036880070F9C3E76FF040021A612046FFF74AFF5E
:10369800C5E76FF020021A61204600F061F9C7E71C
:1036A8000368304A904212D0B0F1804F0FD0A2F593
:1036B8007C4290420BD002F58062904207D002F51E
:1036C8008062904203D002F57842904203D123F001
:1036D80070034A681343234A90422AD0B0F1804FBE
:1036E80027D0A2F57C42904223D002F58062904216
:1036F8001FD002F5806290421BD002F578429042BA
:1037080017D002F57052904213D002F580629042B1
:103718000FD002F5806290420BD0A2F59832904209
:1037280007D002F58062904203D002F58062904291
:1037380003D123F44073CA68134323F080034A6912
:10374800134303608B68C3620B688362054B98421E
:1037580003D003F58063984201D10B690363012309
:10376800436170470000014040B310B5044690F82B
:103778003D30F3B1022384F83D30214651F8040B63
:10378800FFF78EFF012384F8463084F83E3084F832
:103798003F3084F8403084F8413084F8423084F86F
:1037A800433084F8443084F8453084F83D300020B4
:1037B80010BD80F83C30FEF74FFBDBE70120704777
:1037C80010B4846824F47F4442EA03230B43234360
:1037D80083605DF8044B704790F83C30012B79D03A
:1037E80010B50446012380F83C30022380F83D30B0
:1037F8000268936823F47F4323F0770393600B6890
:10380800402B54D011D9702B39D023D8502B43D00A
:10381800602B1DD1CA6849680068FFF71EFE602149
:103828002068FFF72EFE00200BE0102B4AD005D9A8
:10383800202B47D0302B45D0012002E0002B41D06F
:103848000120012384F83D30002384F83C3010BD6A
:103858000120F6E7B3F5805F3AD0B3F5005F0CD1ED
:10386800CB684A6889680068FFF7AAFF22689368EE
:1038780043F4804393600020E3E70120E1E7CB684D
:103888004A6889680068FFF79BFF2268936843F0DD
:10389800770393600020D4E7CA6849680068FFF797
:1038A800C9FD50212068FFF7ECFD0020C9E7CA6870
:1038B80049680068FFF7BEFD40212068FFF7E1FD79
:1038C8000020BEE719462068FFF7DBFD0020B8E7B7
:1038D8000020B6E70220704790F83C30012B3BD01F
:1038E80030B4012380F83C30022380F83D3003686F
:1038F8005C689D6824F070040A6822435A60036873
:10390800164A93421AD0B3F1804F17D0A2F57C42E1
:10391800934213D002F5806293420FD002F5806281
:1039280093420BD002F57842934207D002F57052C9
:10393800934203D0A2F59432934204D125F0800536
:103948004A6815439D60012380F83D30002380F8C4
:103958003C30184630BC70470220704700000140D8
:103968007047704770B504460268136923F44053E2
:10397800C1680B43136183680269134342691343A7
:10398800C2691A430168CB6823F4164323F00C0379
:103998001343CB600268536923F4407381690B4376
:1039A80053610368344A934206D002F58062934219
:1039B80002D0FEF779FB01E0FEF786FBE369B3F579
:1039C800004F2AD00026051846EB06012D1846EBB5
:1039D8000101CB0043EA5573EA00154619466368AE
:1039E8009A009B0F281846EB0101FDF7E7F8234DD5
:1039F800A5FB00325109642303FB11031B01323379
:103A0800A5FB03235B0903F0F00202EB011203F0AC
:103A18000F03216813448B6070BD0026051846EB20
:103A280006012D1846EB0101CB0043EA5573EA0065
:103A38001546194662683346921846EB0303281860
:103A480046EB0101FDF7BAF80C4DA5FB0032510910
:103A5800642303FB1103DB003233A5FB03235B095B
:103A68005A0002F4F87202EB011203F0070321680E
:103A780013448B60D0E700BF001001401F85EB5155
:103A88002DE9F04104460F4616469846069D2368E0
:103A98001B6837EA03030CBF01230023B3422BD171
:103AA800B5F1FF3FF3D02DB1FFF7F8F9A0EB08000F
:103AB800A842ECD9226802F10C0353E8003F23F432
:103AC800D0730C3242E800310029F3D1226802F1A8
:103AD800140353E8003F23F00103143242E8003195
:103AE8000029F3D1202384F83D3084F83E300023A8
:103AF80084F83C30032000E00020BDE8F08158B392
:103B080010B5044690F83D300BB3242384F83D30BB
:103B18002268D36823F40053D3602046FFF722FFBE
:103B28002268136923F4904313612268536923F0D0
:103B38002A0353612268D36843F40053D3600020FA
:103B48002064202384F83D3084F83E3010BD80F88E
:103B58003C30FEF7BBF9D8E7012070472DE9F0416A
:103B680082B01E4690F83D30DBB2202B54D104467B
:103B78000D469046002954D0002A54D090F83C3085
:103B8800012B52D0012380F83C3000230364212309
:103B980080F83D30FFF782F90746A4F82480A4F89E
:103BA8002680A368B3F5805F05D04FF00008002396
:103BB80084F83C3011E0236913B14FF00008F6E7B0
:103BC800A8460025F3E738F8023B2268C3F3080348
:103BD8005360E38C013B9BB2E384E38C9BB273B1EB
:103BE80000963B46002280212046FFF749FFF0B9A6
:103BF800002DE8D015F8012B23685A60E9E70096F4
:103C08003B46002240212046FFF73AFF034680B991
:103C1800202284F83D2000E00223184602B0BDE8C7
:103C2800F0810123F9E70123F7E70223F5E70323EE
:103C3800F3E70323F1E70000DFF834D00D480E491D
:103C48000E4A002302E0D458C4500433C4188C42EE
:103C5800F9D30B4A0B4C002301E013600432A24253
:103C6800FBD3FEF7B7F8FCF7EFFAFDF7EDFF704767
:103C7800000002200000002024000020DC3C000896
:103C88002400002048030020FEE70000F8B500BF2C
:103C9800F8BC08BC9E467047F8B500BFF8BC08BC25
:043CA8009E4670477D
:103CAC0000000000000000000102030406070809E0
:103CBC000000000001020304000610160006101696
:083CCC0028CFFF7F010000007A
:043CD40031020008B1
:043CD80009020008D5
:103CDC00000002401000000000040240010000003F
:103CEC0000080240020000000024F4000100000063
:043CFC0010000000B4
:0400000508003C4172
:00000001FF
